:020000040800F2
:10000000000002200D0D0008AD0A0008AF0A00082C
:10001000B10A0008B30A0008B50A00080000000091
:10002000000000000000000000000000B70A000807
:10003000B90A000800000000BB0A0008BD0A000859
:100040005D0D00085D0D00085D0D00085D0D0008E8
:100050005D0D00085D0D00085D0D00085D0D0008D8
:100060005D0D00085D0D00085D0D0008C10A000867
:10007000D10A00085D0D00085D0D00085D0D000847
:100080005D0D00085D0D00085D0D00085D0D0008A8
:100090005D0D00085D0D00085D0D00085D0D000898
:1000A0005D0D0008E10A00085D0D00085D0D000807
:1000B0005D0D00085D0D00085D0D00085D0D000878
:1000C0005D0D00085D0D00085D0D00085D0D000868
:1000D0005D0D0008F10A00085D0D00085D0D0008C7
:1000E0005D0D00085D0D00085D0D00085D0D000848
:1000F0005D0D00085D0D00085D0D00085D0D000838
:100100005D0D00085D0D00085D0D00085D0D000827
:100110005D0D00085D0D00085D0D00085D0D000817
:100120005D0D00085D0D00085D0D00085D0D000807
:100130005D0D00085D0D00085D0D00085D0D0008F7
:100140005D0D00085D0D00085D0D00085D0D0008E7
:100150005D0D00085D0D00085D0D00085D0D0008D7
:100160005D0D00085D0D00085D0D00085D0D0008C7
:100170005D0D00085D0D00085D0D00085D0D0008B7
:100180005D0D00085D0D00085D0D00085D0D0008A7
:100190005D0D0008000000005D0D00085D0D000809
:1001A0005D0D00085D0D00085D0D00085D0D000887
:1001B0005D0D00085D0D00085D0D00085D0D000877
:1001C0005D0D00085D0D00085D0D00085D0D000867
:0801D0005D0D00085D0D000843
:1002000010B5054C237833B9044B13B10448AFF350
:1002100000800123237010BD4C0800200000000066
:10022000F04A000808B5034B1BB103490348AFF37C
:10023000008008BD0000000050080020F04A0008BF
:1002400053B94AB9002908BF00281CBF4FF0FF313D
:100250004FF0FF3000F074B9ADF1080C6DE904CE39
:1002600000F006F8DDF804E0DDE9022304B0704791
:100270002DE9F047089E0D4604468846002B4DD1D7
:100280008A42944668D9B2FA82F252B101FA02F374
:10029000C2F1200120FA01F10CFA02FC41EA030844
:1002A00094404FEA1C45210CB8FBF5FE1FFA8CF771
:1002B00005FB1E8341EA03430EFB07F199420BD96C
:1002C0001CEB03030EF1FF3080F01E81994240F2D7
:1002D0001B81AEF1020E63445B1AA4B2B3FBF5F0CE
:1002E00005FB103344EA034400FB07F7A7420AD991
:1002F0001CEB040400F1FF3380F00881A74240F2B8
:10030000058164440238E41B40EA0E4000211EB11E
:10031000D4400023C6E90043BDE8F0878B4208D9EA
:10032000002E00F0EE800021C6E900050846BDE879
:10033000F087B3FA83F100294AD1AB4202D382425B
:1003400000F2F980841A65EB030301209846002E21
:10035000E2D0C6E90048DFE702B9FFDEB2FA82F276
:10036000002A40F09180A1EB0C054FEA1C471FFAD0
:100370008CFE0121B5FBF7F307FB1350250C45EA72
:1003800000450EFB03F0A84208D91CEB050503F15C
:10039000FF3802D2A84200F2CB8043462D1AA4B205
:1003A000B5FBF7F007FB105544EA05440EFB00FED1
:1003B000A64508D91CEB040400F1FF3502D2A6457E
:1003C00000F2BB802846A4EB0E0440EA03409EE7FF
:1003D000C1F120078B4022FA07FC4CEA030C20FAFB
:1003E00007F405FA01F31C43FD404FEA1C4900FAEB
:1003F00001F3B5FBF9F8200C1FFA8CFE09FB185528
:1004000040EA054508FB0EF0A84202FA01F20BD9BA
:100410001CEB050508F1FF3A80F08880A84240F205
:100420008580A8F1020865442D1AA4B2B5FBF9F045
:1004300009FB105544EA054500FB0EFEAE4508D900
:100440001CEB050500F1FF346CD2AE456AD90238C9
:10045000654440EA0840A0FB0294A5EB0E05A542C6
:10046000C846A64656D353D05EB1B3EB080265EB3F
:100470000E0505FA07F722FA01F3CD401F43C6E93E
:1004800000750021BDE8F087C2F1200320FA03F1D6
:100490000CFA02FC25FA03F395400D434FEA1C4782
:1004A0001FFA8CFEB3FBF7F107FB11302B0C43EA6C
:1004B000004301FB0EF0984204FA02F408D91CEB49
:1004C000030301F1FF382FD298422DD9023963443A
:1004D0001B1AADB2B3FBF7F007FB103345EA034537
:1004E00000FB0EF3AB4208D91CEB050500F1FF3809
:1004F00016D2AB4214D902386544ED1A40EA0141E4
:1005000038E73146304607E78646E5E61846FAE61C
:100510004B45A9D2B9EB020864EB0C0E0138A3E7F6
:100520004046EAE7204694E74146D1E7D0467BE7DC
:10053000023B654432E7084609E76444023842E773
:10054000704700BF00000000000000000000000035
:10055000000000000000000000000000000000009B
:10056000000000000000000000000000000000008B
:10057000000000000000000000000000000000007B
:1005800090F800F06DE9024520F007016FF0000CD3
:1005900010F0070491F820F040F049804FF000047B
:1005A0006FF00700D1E9002391F840F000F1080056
:1005B00082FA4CF2A4FA8CF283FA4CF3A2FA8CF38E
:1005C0004BBBD1E9022382FA4CF200F10800A4FAF5
:1005D0008CF283FA4CF3A2FA8CF3E3B9D1E9042349
:1005E00082FA4CF200F10800A4FA8CF283FA4CF380
:1005F000A2FA8CF37BB9D1E9062301F1200182FA3A
:100600004CF200F10800A4FA8CF283FA4CF3A2FA3F
:100610008CF3002BC6D0002A04BF04301A4612BA4D
:10062000B2FA82F2FDE8024500EBD2007047D1E950
:10063000002304F00305C4F100004FEAC50514F0DF
:10064000040F91F840F00CFA05F562EA05021CBFB0
:1006500063EA050362464FF00004A9E700000000CA
:1006600001F0FF01102A2BDB10F0070F08D010F863
:10067000013B013A8B422DD010F0070F42B3F6D167
:10068000F0B441EA012141EA014122F007047FF080
:1006900000070023F0E80256083C85EA010586EAD7
:1006A000010685FA47F5A3FA87F586FA47F6A5FA13
:1006B00087F68EB9EED1F0BC01F0FF0102F007021F
:1006C00032B110F8013B013A83EA010313B1F8D1CA
:1006D0000020704701387047002D06BF35460338AB
:1006E000073815F0010F07D1013015F4807F02BFE4
:1006F000013015F4C03F0130F0BC0138704700BF35
:10070000844641EA000313F003036DD1403A41D31C
:1007100051F8043B40F8043B51F8043B40F8043BDB
:1007200051F8043B40F8043B51F8043B40F8043BCB
:1007300051F8043B40F8043B51F8043B40F8043BBB
:1007400051F8043B40F8043B51F8043B40F8043BAB
:1007500051F8043B40F8043B51F8043B40F8043B9B
:1007600051F8043B40F8043B51F8043B40F8043B8B
:1007700051F8043B40F8043B51F8043B40F8043B7B
:1007800051F8043B40F8043B51F8043B40F8043B6B
:10079000403ABDD2303211D351F8043B40F8043B0B
:1007A00051F8043B40F8043B51F8043B40F8043B4B
:1007B00051F8043B40F8043B103AEDD20C3205D31B
:1007C00051F8043B40F8043B043AF9D2043208D013
:1007D000D2071CBF11F8013B00F8013B01D30B8885
:1007E00003806046704700BF082A13D38B078DD063
:1007F00010F003038AD0C3F10403D21ADB071CBF35
:1008000011F8013B00F8013B80D331F8023B20F89E
:10081000023B7BE7043AD9D3013A11F8013B00F8D7
:10082000013BF9D20B7803704B7843708B7883705F
:100830006046704700B583B0124B9A6C42F00402D8
:100840009A649A6C02F004020092009A9A6C42F048
:1008500001029A649B6C03F001030193019B002247
:1008600011460B2000F0C2FA0B2000F0F7FA00222C
:1008700011460C2000F0BAFA0C2000F0EFFA03B099
:100880005DF804FB0010024010B588B0002403940A
:100890000494059406940794184BDA6C42F0040211
:1008A000DA64DA6C02F004020092009ADA6C42F028
:1008B0002002DA64DA6C02F020020192019ADA6C0A
:1008C00042F00102DA64DB6C03F001030293029B45
:1008D00022464FF400714FF0904000F037FD4FF486
:1008E000007303930123049305940223069303A941
:1008F0004FF0904000F03CFC08B010BD00100240EA
:1009000000B583B001904FF6FF73012201A903489F
:1009100002F06BFA019803B05DF804FB780900203F
:1009200008B50268034B9A4200D008BD00F026FAD1
:10093000FBE700BF002C014072B6FEE700B595B0A2
:100940003822002106A802F03BFC00200190029012
:1009500003900490059000F007FD012306934FF4E7
:100960008033079302230D9303220E9206220F92E7
:100970005522109211931293139306A800F0AEFD26
:1009800080B90F230193032302930023039304935D
:10099000059304210DEB010001F058F820B915B0C2
:1009A0005DF804FBFFF7C8FFFFF7C6FF08B500F0CE
:1009B000D6F9FFF7C3FFFFF767FFFFF73BFF00F034
:1009C000EFF802F08FFB02F0C9FB044802F098FC3C
:1009D0004FF47A7000F0E4F9F5E700BF084B000827
:1009E00000B583B00B4B1A6E42F001021A661A6E04
:1009F00002F001020092009A9A6D42F080529A65CC
:100A00009B6D03F080530193019B00F033FD03B015
:100A10005DF804FB0010024030B589B004461E4B5F
:100A20001A6E42F400621A661B6E03F400630193AF
:100A3000019B02A903A801F02FF901F01BF903465D
:100A40001648A0FB03239B0C013B1548154A026086
:100A500040F2E732C260436000230361836001F02B
:100A6000C5FC054610B1284609B030BD0C4801F060
:100A7000EFFA05460028F6D1192000F0EFF90F2C07
:100A800001D90125EFE700222146192000F0AEF937
:100A9000054B1C60E7E700BF0010024083DE1B43EC
:100AA00068080020002C014008000020FEE7FEE757
:100AB000FEE7FEE7FEE770477047704770470000AB
:100AC00008B5024800F0F1FA08BD00BFB8080020E0
:100AD00008B5024800F0E9FA08BD00BF1809002077
:100AE00008B5024801F002FB08BD00BF68080020FD
:100AF00008B5024801F004FD08BD00BF78090020D8
:100B000070B50C461646002506E0AFF3008021467E
:100B100001F8010B01350C46B542F6DB304670BDDD
:100B200070B50C461646002504E014F8010BFFF7DB
:100B3000E7FE0135B542F8DB304670BD4FF0FF30BF
:100B400070474FF400534B600020704701207047FE
:100B50000020704710B503460C4A0D490D48006847
:100B600040B10C4800680344521A934206D8094A1F
:100B7000136010BD0748084C0460F2E702F0F6FA73
:100B80000C2303604FF0FF30F3E700BF00000220AA
:100B900000040000B4080020900A00207047000004
:100BA00008B51748174B03604FF4612343600023D7
:100BB0008360C36003610C2242618361C36103628D
:100BC0004362836202F0BAF970B900210C4802F066
:100BD0003FFA60B900210A4802F05FFA50B90848AC
:100BE00002F017FA48B908BDFFF7A6FEEDE7FFF7D8
:100BF000A3FEEFE7FFF7A0FEF1E7FFF79DFEF2E7A8
:100C0000780900200038014030B59DB0044600212D
:100C10001791189119911A911B91542202A802F070
:100C2000CFFA2268324B9A4201D01DB030BD012369
:100C3000029302A801F04EF8002850D12D4B1A6EF5
:100C400042F480421A661A6E02F480420092009AC0
:100C5000DA6C42F00402DA64DB6C03F00403019303
:100C6000019B3023179302231893002519951A9599
:100C700007231B9317A9204800F07AFA1F48204B3E
:100C80000360182343608560C5608023036145616C
:100C90008561C561056200F027F918BB174BE36752
:100CA0009C621848184B036019234360102383602B
:100CB0000023C3608022026143618361C3610362D8
:100CC00000F012F988B90F4BA3679C62002211460D
:100CD000252000F08BF8252000F0C0F8A5E7FFF7ED
:100CE0002BFEABE7FFF728FED8E7FFF725FEEAE784
:100CF000003801400010024000080048B8080020F9
:100D000008000240180900201C0002400D488546DA
:100D10000D480E490E4A002302E0D458C450043353
:100D2000C4188C42F9D30B4A0B4C002301E013602A
:100D30000432A242FBD3FFF731FF02F01DFAFFF7A6
:100D400035FEFEE700000220000000204C080020D5
:100D5000684B00084C0800208C0A0020FEE710B504
:100D6000032000F031F80F20FFF756FE10B10124E8
:100D7000204610BD0446FFF733FEF9E7034A136827
:100D8000034909680B441360704700BF400A002004
:100D900004000020014B1868704700BF400A002083
:100DA00038B50446FFF7F6FF0546B4F1FF3F02D021
:100DB000044B1B681C44FFF7EDFF401BA042FAD315
:100DC00038BD00BF04000020074AD36823F4E06365
:100DD0001B041B0C000200F4E060034343F0BF63FC
:100DE00043F40033D360704700ED00E000B5194BC9
:100DF000DB68C3F30223C3F1070CBCF1040F28BF67
:100E00004FF0040C03F1040EBEF1060F18D9033B9A
:100E10004FF0FF3E0EFA0CFC21EA0C0199400EFA4D
:100E200003F322EA0303194300280BDB0901C9B2CB
:100E300000F1604000F5614080F800135DF804FBAC
:100E40000023E5E700F00F000901C9B2024B195475
:100E5000F4E700BF00ED00E014ED00E0002807DB40
:100E600000F01F02400901239340024A42F820305B
:100E7000704700BF00E100E003680C4A934213D8BA
:100E80000B49DBB2083B0B4AA2FB0323426C22F066
:100E900003020A448264084AC264C3F304130122B1
:100EA00002FA03F3036570470449EAE707040240C6
:100EB00000080240CDCCCCCC800802402008024083
:100EC0000379074A1A4492004265064A8265013B4B
:100ED00003F01F03012202FA03F3C365704700BF4A
:100EE0003F8200104009024000285BD010B5044644
:100EF00001682D4B99423DD82C4B0B442C4AA2FB48
:100F000003231B099B0043642A4B0364022384F8D8
:100F100025300A6822F4FF4222F07002A368E068DC
:100F200003432069034360690343A0690343E06905
:100F30000343206A034313430B602046FFF79CFFE3
:100F4000A368B3F5804F20D0A36C22791A60E36CBC
:100F5000226D5A606368013B032B19D90023636536
:100F6000A365E3650020E063012384F8253084F85D
:100F7000240010BD104B0B440D4AA2FB03231B0998
:100F80009B0043640D4B0364C0E700236360DBE711
:100F90002046FFF795FF636D00221A60A36DE26D96
:100FA0005A60DFE70120704707040240F8FFFDBFE9
:100FB000CDCCCCCC00000240F8FBFDBF00040240C9
:100FC000034690F82520D2B2022A09D00422C26337
:100FD0000120012283F82520002283F82420704775
:100FE00001680A6822F00E020A60816C0A6822F425
:100FF00080720A6001680A6822F001020A60426C8D
:1010000002F01F01006C01228A404260DA6C196D07
:1010100051605A6D42B1116821F4807111609A6D6E
:10102000D96D51600020D4E70020D2E708B590F8D0
:101030002530DBB2022B09D00423C363012380F8DF
:101040002530002280F82420184608BD0268136865
:1010500023F00E0313600268136823F0010313608A
:10106000826C136823F480731360436C03F01F02D7
:10107000016C012393404B60C36C026D5A60436D59
:1010800033B11A6822F480721A60836DC26D5A609F
:10109000012380F82530002380F82430836B13B1BE
:1010A00098470020D1E70020CFE738B5036C1968D6
:1010B00004682568436C03F01F0304229A400A4227
:1010C00015D015F0040F12D0236813F0200F03D1B0
:1010D000236823F004032360436C03F01F02016CB8
:1010E000042393404B60036B03B1984738BD022241
:1010F0009A400A421CD015F0020F19D0236813F051
:10110000200F06D1236823F00A032360012380F80F
:101110002530436C03F01F02016C022393404B60A7
:10112000002380F82430C36A002BDFD09847DDE726
:10113000082202FA03F30B42D8D015F0080FD5D0DD
:10114000236823F00E032360436C03F01F03016C3C
:10115000012202FA03F34B60C26380F825200023CA
:1011600080F82430436B002BC0D09847BEE70000C6
:1011700070B582B0002365E085685E000324B4404A
:1011800025EA0405CC68B4402C438460446824EA12
:101190000C0C4C68C4F300149C4044EA0C044460FA
:1011A00061E0DD08083550F8256003F007044FEAD8
:1011B000840C0F2404FA0CF426EA040E0C6904FAD9
:1011C0000CF444EA0E0440F8254063E0052400E0F6
:1011D000002404FA0EF42C430CF1020C574D45F890
:1011E0002C40574CA568D44325EA0206D1F804C028
:1011F0001CF4801F01D042EA0506514DAE60ED6837
:1012000004EA0506D1F804C01CF4001F01D042EA2C
:1012100005064B4DEE606D6804EA0506D1F804C082
:101220001CF4003F01D042EA0506454D6E602D6872
:101230002C404E6816F4803F01D042EA0504404A33
:10124000146001330A6832FA03F474D04FF0010CD1
:101250000CFA03FC1CEA0202F3D04C6804F003040D
:10126000013C012C88D94C6804F00304032C0CD0F9
:10127000C4685D004FF0030C0CFA05FC24EA0C0C6A
:101280008C68AC4044EA0C04C4604C6804F003046D
:10129000022C86D004684FEA430E4FF0030C0CFA80
:1012A0000EFC24EA0C0C4C6804F0030404FA0EF45F
:1012B00044EA0C0404604C6814F4403FC1D0214C53
:1012C000256E45F001052566246E04F001040194A5
:1012D000019C4FEA930C0CF10205184C54F8255070
:1012E00003F003044FEA840E0F2404FA0EF425EAF7
:1012F0000405B0F1904F3FF46BAF134CA04212D0F5
:1013000004F58064A04210D004F58064A0420ED0A1
:1013100004F58064A0420CD004F58064A0423FF440
:1013200055AF062455E7012453E7022451E703246F
:101330004FE704244DE702B070BD00BF000001403C
:101340000004014000100240000400480AB181611D
:10135000704781627047436901EA030221EA030191
:1013600041EA024181617047002836D13E4B1B683B
:1013700003F4C063B3F5806F08D03B4AD2F88030E5
:1013800023F48073C2F8803000207047364AD2F8C8
:10139000803023F48073C2F88030136823F4C06374
:1013A00043F400731360314B1B68322202FB03F3DA
:1013B0002F4AA2FB03239B0C013300E0013B2A4A86
:1013C000526912F4806F01D0002BF7D1264B5B6974
:1013D00013F4806F44D100207047B0F5007F08D02F
:1013E000214A136823F4C06343F480631360002030
:1013F00070471D4B1B6803F4C063B3F5806F08D0C2
:10140000194AD2F8803043F48073C2F8803000204B
:101410007047154AD2F8803043F48073C2F88030A8
:10142000136823F4C06343F4007313600F4B1B680D
:10143000322202FB03F30E4AA2FB03239B0C01336F
:1014400000E0013B084A526912F4806F01D0002B82
:10145000F7D1054B5B6913F4806F03D1002070470F
:1014600003207047032070470070004000000020F8
:1014700083DE1B43024A936843F4804393607047C2
:1014800000700040124BDA6802F00302D868C0F323
:101490000310431C032A11D00E48B0FBF3F00C4B91
:1014A000DB68C3F3062303FB00F0094BDB68C3F3DF
:1014B000416301335B00B0FBF3F070470648B0FBBB
:1014C000F3F0034BDB68C3F3062303FB00F0ECE708
:1014D000001002400024F40000366E01002800F0E5
:1014E000548270B582B00446036813F0010F37D000
:1014F000A44A936803F00C03D26802F003020C2B99
:1015000023D0082B23D06368B3F5803F4ED0B3F5CA
:10151000A02F51D09B4B1A6822F480321A601A68AF
:1015200022F480221A606368002B52D0FFF732FC4D
:101530000546944B1B6813F4003F11D1FFF72AFCBA
:10154000401B6428F5D9032028E2032AD9D18D4B0A
:101550001B6813F4003F03D06368002B00F0178270
:10156000236813F0020F5DD0864A936803F00C03E2
:10157000D26802F003020C2B3AD0042B3AD0E36875
:10158000002B75D07F4A136843F480731360FFF714
:1015900001FC05467B4B1B6813F4806F5FD1FFF79E
:1015A000F9FB401B0228F5D90320F7E1754A1368BF
:1015B00043F480331360B6E703F18043A3F53C3373
:1015C0001A6842F480221A601A6842F480321A6063
:1015D000A9E7FFF7DFFB05466A4B1B6813F4003FE2
:1015E000BED0FFF7D7FB401B6428F5D90320D5E117
:1015F000022AC2D1634B1B6813F4806F03D0E368E7
:10160000002B00F0C6815F4A536823F0FE43216936
:1016100043EA016353605C4B1868FFF7FDF900284B
:1016200040F0B981236813F0080F4CD063699BB375
:10163000544AD2F8943043F00103C2F89430FFF7D3
:10164000A9FB05464F4BD3F8943013F0020F3AD163
:10165000FFF7A0FB401B0228F4D903209EE1494A72
:10166000536823F0FE43216943EA01635360D9E7DD
:10167000444A136823F480731360FFF78BFB05461D
:10168000404B1B6813F4806FCCD0FFF783FB401BEB
:101690000228F5D9032081E13A4AD2F8943023F0A8
:1016A0000103C2F89430FFF775FB0546354BD3F8BC
:1016B000943013F0020F06D0FFF76CFB401B02289A
:1016C000F4D903206AE1236813F0040F00F081804D
:1016D0002C4B9B6D13F0805F36D12A4B9A6D42F0F4
:1016E00080529A659B6D03F080530193019B012505
:1016F000264B1B6813F4807F28D0A368012B39D0B8
:10170000052B45D01F4BD3F8902022F00102C3F8DF
:101710009020D3F8902022F00402C3F89020A36810
:10172000002B43D0FFF736FB0646164BD3F890301C
:1017300013F0020F4CD1FFF72DFB801B41F28833D1
:101740009842F2D9032029E10025D1E70F4A136816
:1017500043F480731360FFF71DFB06460B4B1B68B9
:1017600013F4807FC9D1FFF715FB801B0228F5D940
:10177000032013E1034AD2F8903043F00103C2F88A
:101780009030CCE7001002400800002000700040BC
:101790008A4BD3F8902042F00402C3F89020D3F88B
:1017A000902042F00102C3F89020B8E7FFF7F2FA68
:1017B0000646824BD3F8903013F0020F08D0FFF7A3
:1017C000E9FA801B41F288339842F2D90320E5E020
:1017D000E5B9236813F0200F35D0A369E3B1774A48
:1017E000D2F8983043F00103C2F89830FFF7D2FAEC
:1017F0000546724BD3F8983013F0020F23D1FFF750
:10180000C9FA401B0228F4D90320C7E06B4A936D44
:1018100023F080539365DCE7684AD2F8983023F0D0
:101820000103C2F89830FFF7B5FA0546634BD3F8C9
:10183000983013F0020F06D0FFF7ACFA401B0228D5
:10184000F4D90320AAE0E369002B00F0A6805B4AEC
:10185000926802F00C020C2A69D0022B1DD0574B63
:101860001A6822F080721A60DA6822F00302DA60E5
:10187000DA6822F0887222F48032DA60FFF78AFA9E
:1018800004464E4B1B6813F0007F4ED0FFF782FAE0
:10189000001B0228F5D9032080E0484A136823F092
:1018A00080731360FFF776FA0546444B1B6813F00C
:1018B000007F06D0FFF76EFA401B0228F5D90320FF
:1018C0006CE03E4AD3683E491940236A606A013899
:1018D00043EA0013A06A43EA0023206B4008013862
:1018E00043EA4053606B4008013843EA4063E06AD2
:1018F00043EAC0630B43D360136843F08073136003
:10190000D36843F08073D360FFF744FA04462B4B4F
:101910001B6813F0007F06D1FFF73CFA001B02287A
:10192000F5D903203AE0002038E0002036E0012B12
:1019300036D0224BDB6803F00301226A914231D199
:1019400003F0F002616A0139B2EB011F2CD103F4FC
:10195000FE42A16AB2EB012F28D103F07842E16A7E
:10196000B2EBC16F24D103F4C001226B5208013ADB
:10197000B1EB425F1ED103F0C063626B5208013AC3
:10198000B3EB426F18D1002008E00120704701201E
:1019900004E0012002E0012000E0002002B070BD60
:1019A0000120FBE70120F9E70120F7E70120F5E737
:1019B0000120F3E70120F1E70120EFE700100240EA
:1019C0000C809F011E4B9B6803F00C03042B33D04B
:1019D0001B4B9B6803F00C03082B2FD0184B9B6804
:1019E00003F00C030C2B01D000207047144BDA6875
:1019F00002F00302D868C0F30310431C032A11D07D
:101A00001048B0FBF3F00E4BDB68C3F3062303FB77
:101A100000F00B4BDB68C3F3416301335B00B0FBA9
:101A2000F3F070470848B0FBF3F0054BDB68C3F3F5
:101A3000062303FB00F0ECE70248704702487047BA
:101A4000001002400024F40000366E01002800F06F
:101A5000E680F8B50C460546744B1B6803F00F038F
:101A60008B420BD2714A136823F00F030B431360B0
:101A7000136803F00F038B4240F0D3802E6816F0FA
:101A800001065FD06B68032B2FD0022B4DD0684B23
:101A90001B6813F4806F00F0C680FFF793FF654B5F
:101AA00098424DD9624A936823F0F00343F08003D3
:101AB000936080265E4A936823F0030369680B43B2
:101AC0009360FFF767F90746594B9B6803F00C03D7
:101AD0006A68B3EB820F35D0FFF75CF9C01B41F2A7
:101AE00088339842F0D9032078E0514B1B6813F0FB
:101AF000007F01D1012071E0FFF7C4FC4D4B9842FB
:101B00001AD94B4B9B6813F0F00F05D02E6816F0D6
:101B10000206CFD0AB688BB9454A936823F0F00337
:101B200043F0800393608026C4E7414B1B6813F4A5
:101B3000003FB2D1012051E00026BBE70026B9E703
:101B40000026B7E72B6813F0020F48D013F0040FFC
:101B500004D0374A936843F4E06393602B6813F032
:101B6000080F06D0324A936823F47C5343F4E063B1
:101B700093602F4A936823F0F003A9680B439360A6
:101B80002A4B1B6803F00F03A34230D82B6813F0D5
:101B9000040F06D0264A936823F4E063E9680B43F8
:101BA00093602B6813F0080F07D0214A936823F441
:101BB0006053296943EAC1039360FFF703FF1C4B9D
:101BC0009B68C3F303131C4AD35C03F01F03D84084
:101BD0001A4B18601A4B1868FEF71EFFF8BD802ECE
:101BE000CED1134A936823F0F0039360C8E70F4AFD
:101BF000136823F00F0323431360FFF7CBF8064667
:101C00000A4B1B6803F00F03A342BFD0FFF7C2F8D3
:101C1000801B41F288339842F2D90320DEE701208D
:101C200070470120DAE70120D8E700BF002002401A
:101C30000010024000B4C4040C4B00080000002057
:101C400008000020014B1868704700BF000000200A
:101C500008B5FFF7F7FF054B9B68C3F30223044A5F
:101C6000D35C03F01F03D84008BD00BF0010024042
:101C70001C4B000808B5FFF7E5FF054B9B68C3F355
:101C8000C223044AD35C03F01F03D84008BD00BF41
:101C9000001002401C4B00080F2303600B4B9A6896
:101CA00002F0030242609A6802F0F00282609A68D1
:101CB00002F4E062C2609B68DB0803F4E063036146
:101CC000034B1B6803F00F030B60704700100240CA
:101CD00000200240F0B583B00446036813F4002FDF
:101CE0006ED0354B9B6D13F0805F1ED1324B9A6DD9
:101CF00042F080529A659B6D03F080530193019BE3
:101D000001262E4A136843F480731360FFF742F8EC
:101D100005462A4B1B6813F4807F08D1FFF73AF879
:101D2000401B0228F5D9032502E00026E9E700253B
:101D300045BB214BD3F8903013F4407315D0226D7E
:101D40009A4212D01C4AD2F8903023F44073D2F851
:101D5000901041F48031C2F89010D2F8901021F424
:101D60008031C2F89010C2F8903013F0010F10D1FA
:101D700045B9114AD2F8903023F44073216D0B43DA
:101D8000C2F89030EEB10C4A936D23F08053936506
:101D900017E0FEF7FFFF0746074BD3F8903013F02C
:101DA000020FE5D1FEF7F6FFC01B41F288339842DF
:101DB000F2D90325DCE700BF0010024000700040AC
:101DC0000025236813F0010F08D09F4AD2F888300D
:101DD00023F0030361680B43C2F88830236813F0D3
:101DE000020F08D0984AD2F8883023F00C03A1687B
:101DF0000B43C2F88830236813F0040F08D0924ACE
:101E0000D2F8883023F03003E1680B43C2F8883001
:101E1000236813F0080F08D08B4AD2F8883023F0DB
:101E2000C00321690B43C2F88830236813F0100FF8
:101E300008D0854AD2F8883023F4407361690B4397
:101E4000C2F88830236813F0200F08D07E4AD2F8F9
:101E5000883023F44063A1690B43C2F888302368BB
:101E600013F0400F08D0784AD2F8883023F440535A
:101E7000E1690B43C2F88830236813F0800F08D063
:101E8000714AD2F8883023F44043216A0B43C2F8E8
:101E90008830236813F4807F08D06B4AD2F88830EA
:101EA00023F44033616A0B43C2F88830236813F48B
:101EB000003F08D0644AD2F89C3023F00303A16AA3
:101EC0000B43C2F89C30236813F4007F08D05E4AAD
:101ED000D2F8883023F44023E16A0B43C2F88830FB
:101EE000236813F4806F0CD0574AD2F8883023F45B
:101EF0004013216B0B43C2F88830236BB3F5801F6E
:101F000079D0236813F4006F0CD04F4AD2F8883090
:101F100023F44003616B0B43C2F88830636BB3F565
:101F2000800F6DD0236813F4805F0CD0464AD2F83E
:101F3000883023F04073A16B0B43C2F88830A36B49
:101F4000B3F1807F61D0236813F4005F0CD03E4A68
:101F5000D2F8883023F04063E16B0B43C2F888303D
:101F6000E36BB3F1006F55D0236813F4804F0CD0AE
:101F7000354AD2F8883023F04063216C0B43C2F815
:101F80008830236CB3F1006F49D0236813F4004FFD
:101F90000CD02D4AD2F8883023F04053616C0B43AB
:101FA000C2F88830636CB3F1805F3DD0236813F4CE
:101FB000803F0CD0244AD2F8883023F04043A16CF3
:101FC0000B43C2F88830A36CB3F1804F31D0236843
:101FD00013F4802F0CD01C4AD2F89C3023F4401309
:101FE000E16C0B43C2F89C30E36CB3F5001F25D0C5
:101FF000284603B0F0BDD36843F48013D36080E774
:10200000D36843F48013D3608CE7D36843F4801320
:10201000D36098E7D36843F48013D360A4E7D36810
:1020200043F48013D360B0E7D36843F48033D360C4
:10203000BCE7D36843F48033D360C8E7D36843F484
:102040008013D360D4E700BF001002407047000047
:1020500090F83D30DBB2012B3AD1022380F83D30BD
:102060000268D36843F00103D36003681B4A9342BC
:1020700020D0B3F1804F1DD0A2F59432934219D0F5
:1020800002F58062934215D002F58062934211D02E
:1020900002F5943293420DD002F54062934209D08A
:1020A00002F58052934205D01A6842F001021A608C
:1020B0000020704799680A4A0A40062A0AD0B2F5F9
:1020C000803F09D01A6842F001021A600020704770
:1020D000012070470020704700207047002C01400D
:1020E00007000100704770477047704710B50446FD
:1020F00003681A6912F0020F12D0DA6812F0020FA8
:102100000ED06FF002021A610123037703689B6906
:1021100013F0030F00F09F80FFF7E5FF0023237704
:1021200023681A6912F0040F13D0DA6812F0040F52
:102130000FD06FF004021A610223237723689B6992
:1021400013F4407F00F08D802046FFF7CCFF002382
:10215000237723681A6912F0080F12D0DA6812F098
:10216000080F0ED06FF008021A610423237723684A
:10217000DB6913F0030F7BD02046FFF7B4FF002389
:10218000237723681A6912F0100F12D0DA6812F060
:10219000100F0ED06FF010021A6108232377236806
:1021A000DB6913F4407F6AD02046FFF79CFF0023D1
:1021B000237723681A6912F0010F03D0DA6812F04E
:1021C000010F63D123681A6912F0800F03D0DA6817
:1021D00012F0800F61D123681A6912F4807F03D056
:1021E000DA6812F0800F5FD123681A6912F0400F8D
:1021F00003D0DA6812F0400F5DD123681A6912F03B
:10220000200F03D0DA6812F0200F5BD123681A691F
:1022100012F4801F03D0DA6812F4801F59D12368AA
:102220001A6912F4001F03D0DA6812F4001F57D1A4
:1022300023681A6912F4800F03D0DA6812F4800F51
:1022400055D123681A6912F4000F03D0DA6812F42A
:10225000000F53D110BDFFF745FF2046FFF744FFA5
:102260005CE72046FFF73EFF2046FFF73DFF6EE7A5
:102270002046FFF737FF2046FFF736FF7FE720466F
:10228000FFF730FF2046FFF72FFF90E76FF00102C6
:102290001A612046FEF744FB94E76FF080021A6152
:1022A000204600F0D4F896E76FF480721A61204659
:1022B00000F0CEF898E76FF040021A612046FFF771
:1022C00014FF9AE76FF020021A61204600F0BEF872
:1022D0009CE76FF480121A61204600F0BAF89EE77E
:1022E0006FF400121A61204600F0B4F8A0E76FF412
:1022F00080021A61204600F0AEF8A2E76FF40002F7
:102300001A61204600F0A8F8A4E700000368364AE6
:10231000904216D0B0F1804F13D0A2F59432904283
:102320000FD002F5806290420BD002F5806290429D
:1023300007D002F59432904203D002F5E052904269
:1023400003D123F070034A681343274A904222D0F6
:10235000B0F1804F1FD0A2F5943290421BD002F50D
:102360008062904217D002F58062904213D002F54D
:10237000943290420FD002F5406290420BD002F5A9
:102380008062904207D002F58062904203D002F54D
:102390000062904203D123F44073CA68134323F0D0
:1023A00080034A69134303608B68C3620B688362CE
:1023B0000D4B984213D003F5006398420FD003F5FC
:1023C000406398420BD003F58063984207D003F531
:1023D0008063984203D003F50063984201D10B69F2
:1023E0000363012343617047002C014060B310B5C3
:1023F000044690F83D3013B3022384F83D30214663
:1024000051F8040BFFF782FF012384F8483084F869
:102410003E3084F83F3084F8403084F8413084F80E
:10242000423084F8433084F8443084F8453084F8EE
:10243000463084F8473084F83D30002010BD80F8E5
:102440003C30FFF703FED7E7012070477047704725
:1024500070477047704770477047704770477047C4
:10246000704770477047704770477047026852E87E
:10247000003F23F4907342E800310029F6D102684E
:1024800002F1080353E8003F23F0805323F00103D7
:10249000083242E800310029F1D1C36E012B06D089
:1024A0002023C0F888300023C366036770470268A2
:1024B00052E8003F23F0100342E800310029F6D132
:1024C000EEE708B5806A0023A0F85E30A0F8563029
:1024D000D0F8A030984708BD08B5026852E8003F20
:1024E00023F0400342E800310029F6D12023C0F850
:1024F000843000234367D0F89430984708BD00002B
:1025000070B504460168CB6908688D6840F60F0213
:102510001A4008D113F0200F05D010F0200F37D14A
:1025200015F0805F34D12AB1984A2A4035D1984EAF
:10253000304232D1E26E012A00F0C88013F4801FCD
:1025400003D015F4800F40F0628113F0800F07D0A4
:1025500010F0800F40F0638115F4000F40F05F81B0
:1025600013F0400F03D010F0400F40F05F8113F4E0
:10257000000F03D010F0804F40F05C8113F0807F9B
:102580000AD0002808DAD4F8B4302046984703E08F
:10259000236F0BB12046984770BD13F0010F09D08F
:1025A00010F4807F06D001260E62D4F88C103143DF
:1025B000C4F88C1013F0020F0BD015F0010F08D0E7
:1025C000216802260E62D4F88C1041F00401C4F890
:1025D0008C1013F0040F0BD015F0010F08D02168F8
:1025E00004260E62D4F88C1041F00201C4F88C105D
:1025F00013F0080F0BD010F0200F00D13AB1226871
:1026000008211162D4F88C200A43C4F88C2013F4FA
:10261000006F0CD010F0806F09D022684FF4006179
:102620001162D4F88C2042F02002C4F88C20D4F837
:102630008C20002AB0D013F0200F09D010F0200F0A
:1026400002D115F0805F03D0236F0BB1204698476D
:10265000D4F88C2023689B6813F0400F02D112F04D
:10266000280F2BD02046FFF701FF23689B6813F04B
:10267000400F1ED0226802F1080353E8003F23F008
:102680004003083242E800310029F3D1E36F5BB127
:10269000404A9A63E06FFEF7C9FC00283FF47CAF24
:1026A000E06F836B984777E7D4F8A03020469847CF
:1026B00072E7D4F8A030204698476DE7D4F8A030F0
:1026C000204698470023C4F88C3065E713F0100FBC
:1026D0003FF434AF10F0100F3FF430AF10230B6213
:1026E00023689B6813F0400F56D0E26F13685B6855
:1026F0009BB2002B3FF450AFB4F85C1099427FF6C8
:102700004BAFA4F85E3013681B6813F0200F31D173
:10271000226852E8003F23F4807342E80031002928
:10272000F6D1226802F1080353E8003F23F00103C9
:10273000083242E800310029F3D1226802F108038F
:1027400053E8003F23F04003083242E800310029FB
:10275000F3D12023C4F888300023E366226852E8CE
:10276000003F23F0100342E800310029F6D1E06F6A
:10277000FEF726FCD4F8BC20B4F85C10B4F85E3048
:102780009BB2C91A89B22046904705E701000010A4
:1027900020010004C3240008B4F85C10B4F85E30D3
:1027A0009BB2C91A89B2B4F85E309BB2002B3FF4D9
:1027B000F3AE00293FF4F0AE226852E8003F23F464
:1027C000907342E800300028F6D1226802F1080335
:1027D00053E8003F23F0805323F00103083242E81E
:1027E00000300028F1D12023C4F888300023E366AC
:1027F0002367226852E8003F23F0100342E80030CC
:102800000028F6D1D4F8BC3020469847C4E64FF4EF
:1028100080130B62D4F8B03020469847BCE6636F53
:10282000002B3FF4B9AE20469847B5E62046FFF7A7
:1028300053FEB1E6D4F8B83020469847ACE600BF66
:10284000124BC0F89030124BC0F89430114BC0F8C6
:102850009830114BC0F89C30104BC0F8A030104B92
:10286000C0F8A4300F4BC0F8A8300F4BC0F8AC3004
:102870000E4BC0F8B0300E4BC0F8B4300D4BC0F862
:10288000B8300D4BC0F8BC30704700BF5D24000865
:102890005B240008612400085F240008632400080A
:1028A0006524000867240008692400080D3000082A
:1028B0000F300008113000086B24000870B5044682
:1028C000016883680269134342691343C269134371
:1028D0000868964A024013430B602268536823F449
:1028E0004053E1680B435360A1692268904B9A42C0
:1028F00001D0236A1943936823F06E4323F43063B5
:102900000B4393602268D36A23F00F03616A0B4381
:10291000D3622368874A934210D0874A934221D0DA
:10292000864A934237D0864A93425CD0854A934286
:102930006BD07F4A93427DD010223AE002F5584294
:10294000D2F8882002F00302032A09D8DFE802F057
:102950000204870601222CE004222AE0082228E053
:10296000102226E002F5E632D2F8882002F00C02AE
:102970000C2A0ED8DFE802F0070D0D0D090D0D0D24
:10298000750D0D0D0B00002213E0042211E008224A
:102990000FE010220DE002F5E432D2F8882002F0B8
:1029A0003002202A5FD01AD8002A5ED0102A5ED1C9
:1029B00004225F498B4276D0E069B0F5004F00F009
:1029C000C980082A00F23481DFE812F0F70019010B
:1029D000F50032011C013201320132011F01302A9F
:1029E00047D10822E5E702F5E232D2F8882002F06A
:1029F000C002802A3FD004D8FAB3402A3FD1042233
:102A0000D7E7C02A3DD10822D3E702F5E032D2F859
:102A1000882002F44072B2F5007F34D005D8A2B30A
:102A2000B2F5807F33D10422C3E7B2F5407F30D1C5
:102A30000822BEE702F5C832D2F8882002F44062CC
:102A4000B2F5006F27D005D83AB3B2F5806F26D122
:102A50000422AEE7B2F5406F23D10822A9E7022293
:102A6000A7E70222A5E70222A3E70022A1E710229E
:102A70009FE710229DE702229BE7002299E71022A0
:102A800097E7102295E7022293E7002291E71022B0
:102A90008FE710228DE702228BE7002289E71022C0
:102AA00087E7102285E7082A00F2B280DFE802F00B
:102AB00008B03BB038B0B0B005004FF4004004E0BF
:102AC000FFF7C6F8002800F0A580626A1E4B33F8B5
:102AD0001220B0FBF2F3656805EB4501994200F264
:102AE0009B80B3EB053F00F29980002633463146C8
:102AF000FDF7A6FB090241EA106100026B08C0184D
:102B00002A46334641F10001FDF79AFBA0F54072D9
:102B10000E4B9A4200F284802368D860304665E00C
:102B2000FEF750FFCEE70A48CFE700BFF369FFCFBB
:102B30000080004000380140004400400048004050
:102B4000004C004000500040244B0008FFFC0F00E8
:102B50000024F400082A65D8DFE802F0072705649E
:102B60002A6464640B00354803E0FFF771F800281D
:102B70005AD0626A324B33F81230B0FBF3F062681D
:102B8000530803EB4000B0FBF2F0A0F110024FF647
:102B9000EF739A424AD883B223F00F03C0F3420086
:102BA00018432368D860002020E0FFF763F8DEE7D1
:102BB000FEF708FFDBE7214803E0FFF749F80028AC
:102BC00038D0626A1E4B33F81230B0FBF3F0636802
:102BD00000EB5300B0FBF3F0A0F110024FF6EF73DF
:102BE0009A4229D8236880B2D86000200123A4F833
:102BF0006A30A4F8683000232367636770BDFFF76D
:102C000039F8DCE7FEF7DEFED9E74FF40040D8E7FD
:102C10000120EBE70020E9E70120E7E70120E5E7F5
:102C20000120E3E70120E1E70020DFE70120DDE705
:102C30000120DBE70020D9E70120D7E70024F400DA
:102C4000244B0008836A13F0010F06D00268536812
:102C500023F40033C16A0B435360836A13F0020FFD
:102C600006D00268536823F48033016B0B43536032
:102C7000836A13F0040F06D00268536823F480239C
:102C8000416B0B435360836A13F0080F06D0026850
:102C9000536823F40043816B0B435360836A13F042
:102CA000100F06D00268936823F48053C16B0B4366
:102CB0009360836A13F0200F06D00268936823F4B0
:102CC0000053016C0B439360836A13F0400F0AD0EA
:102CD0000268536823F48013416C0B435360436CC8
:102CE000B3F5801F0BD0836A13F0800F06D0026803
:102CF000536823F40023C16C0B4353607047026890
:102D0000536823F4C003816C0B435360EBE72DE958
:102D1000F84305460F4616469946DDF820802C6894
:102D2000E46937EA04030CBF4FF0010C4FF0000CCC
:102D3000B44557D1B8F1FF3FF1D0FEF72BF8A0EB27
:102D4000090040452FD8B8F1000F2CD02B681A6825
:102D500012F0040FE3D0DA6912F4006FDFD04FF401
:102D600000621A622A6852E8003F23F4D07342E8F6
:102D700000310029F6D12A6802F1080353E8003F28
:102D800023F00103083242E800310029F3D1202367
:102D9000C5F88430C5F88830C5F88C30002385F834
:102DA000803003201FE02A6852E8003F23F4D073EC
:102DB00042E800310029F6D12A6802F1080353E8FD
:102DC000003F23F00103083242E800310029F3D12B
:102DD0002023C5F88430C5F88830002385F880307A
:102DE000032000E00020BDE8F8832DE9F04182B027
:102DF0001E46D0F88430202B58D104460D4690460C
:102E0000002957D0002A57D090F88030012B55D098
:102E1000012380F880300023C0F88C302123C0F8D3
:102E20008430FDF7B7FF0746A4F85480A4F8568015
:102E3000A368B3F5805F05D04FF00008002384F845
:102E4000803014E0236913B14FF00008F6E7A8467C
:102E50000025F3E738F8023B2268C3F308039362C6
:102E6000B4F8562092B2013A92B2A4F85620B4F8BF
:102E700056309BB273B100963B460022802120461B
:102E8000FFF745FFE0B9002DE4D015F8012B2368CA
:102E90009A62E5E700963B46002240212046FFF774
:102EA00036FF78B92023C4F8843000E0022002B055
:102EB000BDE8F0810120FAE70120F8E70220F6E7FB
:102EC0000320F4E70320F2E730B583B00446002383
:102ED000C0F88C30FDF75EFF05462268126812F0DC
:102EE000080F0FD123681B6813F0040F18D120239B
:102EF000C4F88430C4F888300020E06684F880008C
:102F000003B030BD6FF07E430093034600224FF4C0
:102F100000112046FFF7FBFE0028E3D00320EFE777
:102F20006FF07E4300932B4600224FF48001204631
:102F3000FFF7EDFE0028DAD00320E1E700283AD0C1
:102F400010B50446D0F884300BB32423C4F8843081
:102F50002268136823F0010313602046FFF7AEFCDC
:102F6000012813D0A36A13BB2268536823F490434B
:102F700053602268936823F02A03936022681368E1
:102F800043F0010313602046FFF79EFF10BD80F859
:102F90008030FFF755FCD4F8C03023B1D4F8C030EE
:102FA00020469847D1E7054BC4F8C030F6E72046E5
:102FB000FFF748FED8E70120704700BF090C000862
:102FC000436E2BB90123A0F86A30A0F8683070472F
:102FD00030B403689A68C2F342629968490F094D98
:102FE0006B5CDB00084C615C93FBF1F3A0F86A308A
:102FF000AB5CDB00A25C93FBF2F3A0F8683030BC62
:10300000704700BF444B00083C4B000870477047B6
:10301000704790F88030012B18D0012380F8803061
:103020002423C0F8843003681A68196821F001016C
:10303000196022F000520023436601680A602022D2
:10304000C0F8842080F8803018467047022070470E
:1030500038B590F88030012B1DD00446012380F84C
:1030600080302423C0F8843003681D681A6822F079
:1030700001021A600268936823F06043194391606B
:10308000FFF79EFF23681D602023C4F884300020D2
:1030900084F8800038BD0220FCE738B590F8803015
:1030A000012B1DD00446012380F880302423C0F872
:1030B000843003681D681A6822F001021A600268F1
:1030C000936823F0606319439160FFF779FF2368E9
:1030D0001D602023C4F88430002084F8800038BDAF
:1030E0000220FCE710B588B00024039404940594F2
:1030F00006940794184BDA6C42F00402DA64DA6C36
:1031000002F004020092009ADA6C42F02002DA64C3
:10311000DA6C02F020020192019ADA6C42F00102AC
:10312000DA64DB6C03F001030293029B22464FF446
:1031300000714FF09040FEF709F94FF400730393CC
:103140000123049305940223069303A94FF09040B2
:10315000FEF70EF808B010BD0010024008B54FF49D
:1031600000714FF09040FEF7F6F808BD014B18686B
:10317000704700BF0C00002070B50D4E0D4D761B42
:10318000B61006D0002455F8043B01349847A642F7
:10319000F9D1094E094D761B01F0AAFCB61006D0F4
:1031A000002455F8043B01349847A642F9D170BD7C
:1031B0005C4B00085C4B0008644B00085C4B00084B
:1031C000830730B548D0541E002A3FD0CAB2034608
:1031D00001E0013C3AD303F8012B9D07F9D1032C00
:1031E0002DD9CDB245EA05250F2C45EA054536D93E
:1031F000A4F1100222F00F0C03F1200EE6444FEA76
:10320000121C03F1100242E9045542E90255103242
:103210007245F8D10CF1010214F00C0F03EB02120D
:1032200004F00F0C13D0ACF1040323F003030433B8
:10323000134442F8045B9342FBD10CF003042CB11D
:10324000CAB21C4403F8012B9C42FBD130BD64463A
:103250001346002CF4D1F9E703461446BFE71A469B
:10326000A446E0E770B5054688B008460C46FDF771
:1032700087F9224EAA6B059001214318CDE906611A
:1032800004A8022104940393AC680190029122B334
:10329000636E13F0010FB4F90C309AB201D19805A6
:1032A00025D5910406D4626E43F4005322F40052F3
:1032B000A3816266284601AA214600F0E7F8636E02
:1032C000002814BF4FF0FF350A25DA0702D4A3897E
:1032D0009B0506D5284608B070BD284600F02EF89C
:1032E000D6E7A06D00F070FA284608B070BDA06D5A
:1032F00000F068FAB4F90C309AB2D2E7504B0008EB
:10330000024B01461868FFF7ADBF00BF0C0000205C
:10331000024B13B1024800F005B8704700000000EE
:1033200061340008002301461A46184601F04AB8E5
:10333000014900F01FBA00BF754400082DE9F047AD
:103340008246394800F03EFADAF83840002C66D15F
:10335000DAF80450354ACAF83C200323CAE9B843D6
:10336000DFF8CC90DFF8CC80334F344E04230AF5DD
:103370003B72CAF8E8222146C5E90243C5E9004488
:10338000C5E904446C660822AC6105F15C00FFF7F6
:1033900017FFC5E90759C5E90987EE6205F158002D
:1033A00000F00CFADAF80850254BEB602146C5E92D
:1033B0000044C5E904446C66AC60AC61082205F1C8
:1033C0005C00FFF7FDFEC5E90759C5E90987EE6214
:1033D00005F1580000F0F2F9DAF80C50194BEB60E7
:1033E0002146C5E90044C5E904446C66AC60AC61A3
:1033F000082205F15C00FFF7E3FE05F15800C5E97E
:103400000759C5E90A76C5F8248000F0D7F90123E9
:10341000CAF838300448BDE8F04700F0D5B9BDE837
:10342000F047014800F0D0B9500A002031330008BD
:10343000394200085D4200089D420008BD42000874
:103440000900010012000200014800F0BBB900BFF2
:103450004C0A0020014800F0B7B900BF4C0A002018
:1034600038B5084B084D5B1B9C1007D0043B1D442E
:10347000013C55F804399847002CF9D1BDE8384093
:1034800001F03CBB684B0008644B00089368002BBC
:1034900000F081802DE9F04FB1F90C300C4619078E
:1034A000804683B0174698B223D523690BB310F03A
:1034B00002033D682BD04FF0000ADFF8B4B2564645
:1034C0005E453346524628BF5B464046002E4FD0ED
:1034D000E169D4F824C0E047002852DDBB681B1A1C
:1034E0008244361ABB60002BEAD1002003B0BDE84D
:1034F000F08F2146404600F0FBFE002840F034816A
:10350000B4F90C303D6898B210F00203D3D110F03A
:10351000010942D14E463EB38205D4F808B040F1CD
:103520008180B3455A4600F2B18010F4906F40F0AC
:10353000BE8020680192494600F0F8FBA36821682C
:10354000019AA3EB0B030A44B246A3602260002653
:10355000B868A0EB0A00D144B8600028C5D0B4F91F
:103560000C0080B2002ED7D1D5E900960835D2E7FD
:10357000D5E900A60835A3E72146404601F070F8DA
:1035800080B3B4F90C3043F040034FF0FF30A38117
:1035900003B0BDE8F08F002070471E46AA4699464A
:1035A00018461D4656B388B34A46D4E9041320682A
:1035B000B24228BF3246884205D9A16803EB010B0D
:1035C0005A4500F3A780934264DCE169D4F824C033
:1035D0002A464046E047B0F1000BD2DDB9EB0B09BB
:1035E000CAD00120BB68A3EB0B035D44A6EB0B061E
:1035F000BB60002B3FF479AF002ED4D10AF1080351
:1036000053E902569A460833002EF9D032460A2171
:103610002846FDF725F8002800F09D800130A0EB3A
:103620000509C1E720682369984217D86369B34246
:1036300014D86FF00042B24228BF3246E16992FBD3
:10364000F3F2D4F824C002FB03F340464A46E047B5
:10365000B0F1000A95DDA6EB0A0679E7B345DA4634
:1036600028BFB2465246494600F060FBA368226874
:10367000A3EB0A035244A3602260002BEBD1214646
:10368000404600F0EDFF0028E5D07AE72068B34619
:1036900032464FE72946019200F048FB019AA368A1
:1036A0009B1AA360236813442360934696E723681C
:1036B0002169A3EB010B636903EB430A0AEBDA7A96
:1036C0000BF101034FEA6A0A33445345524684BF63
:1036D0009A46524643052CD51146404600F076F8EE
:1036E00000283BD05A4621690190FDF709F8A289CC
:1036F000019B22F4906242F08002A28103EB0B0056
:103700002361AAEB0B03C4F814A0A3602060B346A6
:1037100032460FE729465A4600F008FB23685B440F
:1037200023602146404600F09BFF00283FF456AF3F
:1037300027E7404600F082FB03460028DED12169DE
:10374000404601F00BF8B4F90C300C2223F0800352
:10375000C8F8002017E7721C914626E70C22B4F93E
:103760000C30C8F800200EE74FF0FF30BEE600BF77
:1037700000FCFF7F2DE9F8430746884600F53876C0
:103780004FF00009D6E90154013D11D4A389012B62
:1037900005F1FF3508D9B4F90E300133214603D0C5
:1037A0003846C04749EA00096B1C04F16804EDD1B2
:1037B0003668002EE6D14846BDE8F883704700BF62
:1037C000704700BF704700BF704700BF2DE9F04F42
:1037D00001F10B06162E83B0044624D8102900F2FE
:1037E000BA8000F01FFB102618220220B54F3A4481
:1037F000A2F1080153688B4200F0BA805A68D96878
:1038000022F003021A449D68E9608D60516841F01E
:1038100001012046516003F1080500F009FB28462C
:1038200003B0BDE8F08F36F0070600F19480B14296
:1038300000F2918000F0F6FAB6F5FC7FC0F09A81B4
:10384000730A00F08F80042B00F26F81B30903F13B
:10385000390003F1380CC3009A4F3B44A3F108052B
:103860005B689D4206D10CE0002980F22781DB686D
:103870009D4206D05A6822F00302911B0F29F3DD06
:1038800060463D69DFF840C265457CD06A6822F039
:103890000302931B0F2B00F37B81002BC7E904CCA1
:1038A00080F26C81B2F5007F80F01A81D3087968CC
:1038B00001334FEA521E012202FA0EF20A4357F870
:1038C00033E0C5F808E007EBC3010839E9607A6026
:1038D00047F83350CEF80C508310012199409142A3
:1038E00057D8114206D120F003004900114200F1DF
:1038F0000400FAD007EBC0094D468646D5F80C8087
:10390000454508D11DE1002B80F22481D8F80C80B8
:10391000454500F01681D8F8042022F00302931BDD
:103920000F2BF0DD2046D8E9025408EB060146F0E3
:103930000106C8F80460EC60A56043F00104C7E923
:103940000411C1E902CC4C6048F8023000F070FA72
:1039500008F1080502E00C2323600025284603B087
:10396000BDE8F08F4FF4007340204FF03F0C73E739
:10397000D3689A4208BF02307FF440AF3D69DFF858
:1039800048C1654582D17A688310012199409142EE
:10399000A7D9BD686B6823F003094E4503D8A9EB8E
:1039A00006030F2B7ADCDFF824B1494BDBF800204B
:1039B0001B680132334405EB090A00F0338103F53B
:1039C00080530F3323F47F6828F00F0841462046C8
:1039D00000F020FC411C024600F0F380824500F21A
:1039E000EE803C4B196841441960084600F04E8156
:1039F000DBF80010019301311BBFA2EB0A0A50440F
:103A0000CBF80020186012F0070B00F01781CBF103
:103A100008010A44CBF5805190440831A1EB08011C
:103A2000C1F30B0A51462046009200F0F3FB421C02
:103A3000DDE9002300F04F81801A00EB0A081968C5
:103A4000BA6048F001005144BD425060196000F076
:103A50002981B9F10F0F40F227816868A9F10C0C98
:103A60002CF0070C00F0010040EA0C0068604FF0F9
:103A7000050E05EB0C00BCF10F0FC0E901EE00F2E2
:103A8000328150681546144B1A688A4238BF196053
:103A9000124B1A688A4238BF196094E0AA1943F0A1
:103AA000010346F001066E602046BA60536000F0E4
:103AB000BFF90835284603B0BDE8F08FD9681A442D
:103AC000A1E600BF3C04002044040020440800207C
:103AD000840A0020540A00207C0A0020800A00206A
:103AE000B2F5206F4FEA522363D3142B00F2B78054
:103AF00003F15C01C9005B3307EB010E7958AEF1AD
:103B0000080E8E4500F091804B6823F0030393422A
:103B100002D989688E45F7D1D1F80CE07A68C5E9F9
:103B2000021ECEF80850CD60D6E6142B59D9542B7E
:103B300000F29D80330B03F16F0003F16E0CC300A4
:103B40008AE60EF1010E1EF0030F05F108057FF461
:103B5000D5AE51E0424445465368D8F80C1043F0C6
:103B60000103536055F8083F2046D9608B6000F090
:103B70005FF9F3E6F00806F1080237E62A4420462A
:103B8000536843F001035360083500F051F9E5E64E
:103B9000A919204646F0010643F001046E60C7E90A
:103BA0000411C1E902CC4C60AB5000F041F908357A
:103BB000D4E6930903F13901C90038339CE7BD42CB
:103BC0005FD0BD68686820F003084645A8EB06038F
:103BD00002D80F2B3FF762AF204600F029F90025ED
:103BE000BCE603F15C0003F15B0CC30034E659F85A
:103BF00008394B4540F0968010F0030F00F1FF307C
:103C0000F5D17B6823EA01037B60490099423FF6C6
:103C1000C0AE19B9BDE649000EF1040E1942FAD042
:103C2000704667E603F11008D0E69A104FF00108DD
:103C30007B6808FA02F21A437A6070E702EB080127
:103C40004942C1F30B0A51462046009200F0E2FAC5
:103C5000431CDDE900237FF4EFAEDA46EFE6542B98
:103C600025D8130B03F16F01C9006E3344E7B3F598
:103C7000AA7F25D8F30B03F1780003F1770CC3007A
:103C8000EAE5294B186840441860B1E6CAF30B0C0A
:103C9000BCF1000F7FF4ACAEBD68C84448F0010031
:103CA0006860F0E61546EEE60123536094E7B3F54D
:103CB000AA7F23D8D30B03F17801C90077331BE720
:103CC00040F25452934223D8B30C03F17D0003F128
:103CD0007C0CC300C0E5ABF1080BD844A8EB02088C
:103CE0004FF0000AABE605F108012046009300F012
:103CF00035FDBD68009B68681968C4E640F2545100
:103D00008B420BD8930C03F17D01C9007C33F3E6A1
:103D10004FF47E737F204FF07E0C9DE54FF47E7153
:103D20007E23E9E67B6870E7540A002088420DD9BB
:103D30008B1883420AD900EB020CBAB1624613F821
:103D400001CD02F801CD9942F9D170470F2A0ED862
:103D5000034602F1FF3C4AB10CF1010C013B8C44DB
:103D600011F8012B03F8012F6145F9D1704740EAA2
:103D700001039B0750D1A2F1100370B501F1200C93
:103D800023F00F0501F1100E00F11004AC441B09E3
:103D90005EF8105C44F8105C5EF80C5C44F80C5C57
:103DA0005EF8085C44F8085C5EF8045C44F8045C67
:103DB0000EF1100EE64504F11004E9D1013312F0C2
:103DC0000C0F01EB031102F00F0400EB031327D0DB
:103DD000043C24F003064FEA940C1E441C1F8E463C
:103DE0005EF8045B44F8045FB442F9D10CF10104BD
:103DF00002F0030203EB840301EB840102F1FF3CB8
:103E00004AB10CF1010C013B8C4411F8012B03F871
:103E1000012F6145F9D170BD02F1FF3C03469BE7DC
:103E20002246EBE70148FFF7CDBC00BF480A00205F
:103E30000148FFF7C9BC00BF480A00202DE9F84F30
:103E40001746002900F0988007F10B0580460C46C4
:103E5000FFF7E8FF162D5DD810252A46AF425ED841
:103E600054F8041C21F003069642A4F1080962DA12
:103E7000BC4BD3F808C009EB0600844500F09780DE
:103E8000D0F804C02CF0010303445B68DB0768D45E
:103E90002CF0030C06EB0C03934247DACB0710D44B
:103EA00054F8083CA9EB030ADAF8043023F00301C4
:103EB0008C44B444944580F211817318934280F28B
:103EC000E88039464046FFF781FC0746E0B154F8E8
:103ED000043C23F001034B44A0F10802934200F09C
:103EE000D280321F242A00F2F580132A00F2AC801F
:103EF00003462246116819605168596092689A60B9
:103F00002146404600F02AFC4046FFF791FF384624
:103F1000BDE8F88F25F00705002D2A469EDA0C2310
:103F2000C8F8003000273846BDE8F88F1E46D0E9B3
:103F30000223D3609A60731B0F2B22D8D9F8043068
:103F400003F0010333434E44C9F80430736843F06F
:103F50000103736040462746FFF76AFF3846BDE815
:103F6000F88FC907ADD454F8083CA9EB030ADAF876
:103F7000041021F00301A0E7BDE8F84F1146FFF758
:103F800025BCD9F8041001F001012943C9F8041037
:103F900009EB05014E4443F001034B60736843F0A5
:103FA000010308317360404600F0D8FBD2E7DCF82B
:103FB000040020F0030B06EB0B0C05F11000844508
:103FC0004DDAC9073FF57DAF54F8081CA9EB010A8B
:103FD000DAF8041021F003018B44B34458453FF74D
:103FE0006CAF5746DAF80C1057F8080F321F242A26
:103FF000C160886000F2DB80132A40F2D68021681D
:10400000CAF808106168CAF80C101B2A00F2DF8099
:1040100008340AF110022168116061685160A168DA
:1040200091600AEB0501ABEB050242F001029960D9
:104030004A60DAF8043003F001031D434046CAF831
:104040000450FFF7F5FE6EE7236803606368436082
:104050001B2A68D804F1080200F108034AE709EBBB
:1040600005029A60ACEB050343F00103536054F87A
:10407000043C03F001031D43404644F8045CFFF791
:10408000D7FE27464FE750F8043C23F003031E44B5
:1040900051E75746DAF80C1057F8080F321F242A58
:1040A000C16088604CD8132A48D92168CAF8081022
:1040B0006168CAF80C101B2A56D808340AF110029D
:1040C0001E462368136063685360A3689360D146FB
:1040D0003C4630E72146FFF729FE11E7D0E90213FD
:1040E0005746CB60996057F8081FDAF80C30CB6060
:1040F000321F242A99602DD8132A29D92368CAF897
:1041000008306368CAF80C301B2A42D808340AF118
:10411000100322681A6062685A60A2689A60664654
:10412000D1463C4607E7A3688360E368C360242A5E
:1041300026D004F1100200F11003DBE63A46BFE797
:10414000214638461E46D146FFF7F0FD3C46F2E6D2
:104150003B46DEE7214638466646D146FFF7E6FD98
:104160003C46E8E63C040020A168CAF81010E1686B
:10417000CAF81410242A20D010340AF118029FE73C
:10418000236903616169416104F1180200F11803B8
:10419000B0E6A368CAF81030E368CAF81430242ADD
:1041A00021D010340AF11803B3E73A4633E7214629
:1041B0003846FFF7BBFD164B33E72269CAF81820D3
:1041C0006269CAF81C2018340AF1200278E7A16855
:1041D000CAF81010E168CAF81410242A0DD010345F
:1041E0000AF1180217E72369CAF818306369CAF898
:1041F0001C3018340AF120038BE72269CAF8182012
:104200006269CAF81C2018340AF1200203E700BFD3
:104210003C04002038B5074D0022044608462A60B9
:10422000FCF798FC431C00D038BD2B68002BFBD05A
:10423000236038BD880A002010B50C46B1F90E1075
:1042400000F018FC002803DB236D0344236510BD38
:10425000A38923F48053A38110BD00BF2DE9F04151
:104260000C46B1F90C101F46CB05054616460BD47B
:1042700021F48051A1813B46B4F90E103246284604
:10428000BDE8F04100F01EB8B4F90E100223002280
:1042900000F06AFBB4F90C10EAE700BF10B50C4659
:1042A000B1F90E1000F060FBA389421C0EBF23F48D
:1042B000805343F480532065A38110BDB1F90E10E3
:1042C00000F0C6B838B50C46084D84461146204665
:1042D0001A4600232B606446FCF722FC431C00D0E6
:1042E00038BD2B68002BFBD0236038BD880A002026
:1042F00038B5334B1B6805460C460BB19A6B12B3AD
:10430000B4F90C3018079AB225D5216900292DD0AF
:1043100012F0010007D00020A06060694042A06157
:1043200039B1002038BD950758BF6069A0600029E9
:10433000F7D1120658BF0846F4D543F04003A381D5
:104340004FF0FF3038BD1846FEF7F8FFB4F90C30D7
:1043500018079AB2D9D4D1062AD5520714D42169A4
:1043600043F00803A3819AB20029D1D102F420704E
:10437000B0F5007FCCD02146284600F00BFBB4F905
:104380000C3021699AB2C3E7216B51B104F14002AC
:10439000914204D0284600F0E1F9B4F90C30002233
:1043A000226321690022C4E9001223F02403D7E725
:1043B000092243F040032A604FF0FF30A38138BD4B
:1043C0000C0000202DE9F047DFF87CA00646DAF863
:1043D000000098460F469146FFF7F4F91B4B1B6807
:1043E000D3F8484124B365681F2D26DC5EB96B1CE9
:1043F0000235DAF80000636044F82570FFF7E4F94D
:104400000020BDE8F08704EB85010123C1F8889006
:10441000D4F88821AB401A43022EC4F88821C1F891
:104420000881E4D1D4F88C211343C4F88C31DEE741
:1044300003F5A674C3F84841D5E7DAF80000FFF7A2
:10444000C3F94FF0FF30DCE7380400204C4B000884
:1044500038B5074D0022044608462A60FCF76EFB7B
:10446000431C00D038BD2B68002BFBD0236038BD27
:10447000880A002070B500294BD006460C4610B1C2
:10448000836B002B48D0636ED80734D5B4F90C3059
:10449000002B3ED02146304600F052F8E36A054634
:1044A00033B1E169304698470028B8BF4FF0FF3577
:1044B000A3891A063BD4216B41B104F14003994210
:1044C00002D0304600F04AF900232363616C21B129
:1044D000304600F043F900236364FEF7B5FF636ED6
:1044E0000022DB07A28127D5A06DFFF769F9FEF74F
:1044F000B1FF284670BDA3899905CBD4A06DFFF705
:1045000061F9B4F90C30002BC4D1656E15F00105CA
:1045100008D00025284670BDFEF710FF636ED8074F
:10452000B4D4E8E7A06DFFF74FF9284670BD2169C4
:10453000304600F013F9BEE7A06DFFF745F9D3E769
:10454000B1F90C20F8B50C461107074642D4636850
:1045500042F40062002BA28159DDA56A002D54D0DF
:1045600000233E683B6093B212F4805253D1E1695C
:1045700001233846A847421C63D0A389A56A5B077C
:1045800005D56368C01A236B0BB1E36BC01AE169F0
:10459000024600233846A847411C3ED13B68002B09
:1045A0003BD01D2B01D0162B52D1A389226922604A
:1045B00023F4006300216160A381216B3E6021B37D
:1045C00004F14003994202D0384600F0C7F80020B9
:1045D0002063F8BD2669C6B193B2256826609A07A4
:1045E0000CBF63690023AD1BA3600CE0D4F824C0AA
:1045F000E1692B4632463846E047B0F1000CA5EBA6
:104600000C05664416DD002DF0DC0020F8BDE36BE0
:10461000002BA2DCF9E7206DB1E7B4F90C30226978
:10462000226023F40063A3810022DB046260C4D50E
:104630002065C2E7A38943F040034FF0FF30A38118
:10464000F8BD3B68002B98D01D2B06D0162B04D04C
:10465000A38943F04003A381F8BD3E60D5E700BFC6
:1046600038B50C46054608B1836BA3B1B4F90C000C
:10467000B8B1636EDB0701D4810515D52846214604
:10468000FFF75EFF636EDA07054602D4A3899B0538
:104690000ED5284638BDFEF751FEB4F90C000028AF
:1046A000E7D10546284638BDA06DFFF78BF8E5E752
:1046B000A06DFFF789F8284638BD00BFF8B5244F34
:1046C0000C460646FFF7AEFBBA685568C4F57E6334
:1046D0000F3325F003052B4423F47F6323F00F03EE
:1046E000A3F58054B4F5805F07DB00213046FFF767
:1046F00091FDBB682B44984204D03046FFF798FBED
:104700000020F8BD61423046FFF784FD01300DD036
:10471000104ABB682D1B45F001055D6013683046EB
:104720001B1B1360FFF784FB0120F8BD00213046FE
:10473000FFF770FDBA68831A0F2BDEDD43F001032B
:104740005360054B03491B68C01A0860D5E700BFDA
:104750003C040020540A002044080020002961D0B5
:10476000F8B50C460646FFF75DFB54F8042C7B4F6A
:10477000A4F1080522F0010105EB010CB868DCF892
:104780000430604523F0030300F08B80D207CCF89F
:10479000043032D454F8082CAD1A1144AA6807F139
:1047A000080082426AD00CEB0304D4F804E0EC6801
:1047B000D4601EF0010FA26000F0978041F0010369
:1047C0006B60CCF80010B1F5007F35D27A68CB0869
:1047D00048090121013381401143796007EBC3028D
:1047E00057F83310083AC5E9021247F83350CD6044
:1047F0003046BDE8F840FFF71BBB0CEB03025268E4
:10480000D00710D4194407F10800DCF808308342BF
:1048100073D0DCF80C20DA60936041F001036B6028
:104820006950D0E7704741F00103B1F5007F44F8CB
:10483000043CCCF80010C9D3B1F5206F4FEA5123E6
:1048400048D28B0903F1390003F13802C300F8188C
:10485000FB580838984259D05A6822F003028A421D
:1048600002D99B689842F7D1D868C5E902308560C3
:10487000DD603046BDE8F840FFF7DABA0CEB030222
:104880005268D20763D40B44DCE90212CA6091601B
:1048900043F001026A603046EB50BDE8F840FFF794
:1048A000C7BA0B44D10707D454F8082CAD1A1344E7
:1048B000D5E90212CA60916043F001026A60284A99
:1048C000BD6012689A4293D8264B30461968FFF7AC
:1048D000F5FE8DE7142B0AD9542B1FD80B0B03F1CF
:1048E0006F0003F16E02C300B1E719448DE703F1D5
:1048F0005C0003F15B02C300A9E741F00103C7E9D3
:104900000455C5E902006B60695071E7796892103F
:10491000012404FA02F20A437A60A6E7B3F5AA7FFB
:1049200006D8CB0B03F1780003F17702C3008EE7C2
:1049300040F25452934206D88B0C03F17D0003F1F0
:104940007C02C30083E74FF47E737E227FE741F051
:1049500001036B60CCF800104AE700BF3C04002064
:1049600048080020840A002038B50C46084D8446CB
:10497000114620461A4600232B606446FCF7E8F8EF
:10498000431C00D038BD2B68002BFBD0236038BD02
:10499000880A00202DE9F0418B890C46990796B0D2
:1049A00008D504F143030122C4E90432236016B0A0
:1049B000BDE8F081B4F90E100029064627DB6A46EF
:1049C00000F06EF8002821DB019D05F47045A5F587
:1049D0000055B5FA85F54FF480686D094FF400670E
:1049E00041463046FEF7F2FEB4F90C30F0B1204AF1
:1049F000F26343F08003C4F81480A3812060206137
:104A000035BB3B43A38116B0BDE8F081A38913F009
:104A1000800519D04FF0400841463046FEF7D6FEDB
:104A20000025B4F90C302F460028E0D19A05BED4F9
:104A300023F0030304F1430243F002030121C4E91C
:104A40000421A3812260B2E74FF480682F46C7E7B4
:104A5000B4F90E10304600F039F810B9B4F90C3042
:104A6000CFE7A38923F0030343F001031BB2C8E798
:104A70003133000838B50C46084D844611462046AF
:104A80001A4600232B606446FCF73AF8431C00D01A
:104A900038BD2B68002BFBD0236038BD880A00206E
:104AA00070B50C46084D03460026204611461C46AC
:104AB0002E60FCF746F8431C00D070BD2B68002B1D
:104AC000FBD0236070BD00BF880A002038B5074DB9
:104AD0000022044608462A60FCF738F8431C00D040
:104AE00038BD2B68002BFBD0236038BD880A00201E
:104AF000F8B500BFF8BC08BC9E467047F8B500BFCB
:084B0000F8BC08BC9E4670479A
:104B0800737A0D0000000000000000000102030499
:104B18000607080900000000010203040100020062
:104B28000400060008000A000C00100020004000E5
:104B380080000001080402040801010101010103C9
:0C4B480007010000100000200A0000001F
:084B54001CB7FF7F0100000007
:084B5C001133000825020008D6
:044B64000102000842
:104B68000024F400010000001000000010000020E4
:104B780000000000FC02002064030020CC03002099
:104B8800000000000000000000000000000000001D
:104B9800000000000000000000000000000000000D
:104BA80000000000000000000000000000000000FD
:104BB80000000000000000000000000000000000ED
:104BC80000000000000000000000000000000000DD
:104BD80000000000000000000000000000000000CD
:104BE80000000000000000000000000000000000BD
:104BF80000000000000000000000000000000000AD
:104C0800000000000000000000000000000000009C
:104C1800000000000000000001000000000000008B
:104C28000E33CDAB34126DE6ECDE05000B00000050
:104C3800000000000000000000000000000000006C
:104C4800000000000000000000000000000000005C
:104C5800000000000000000000000000000000004C
:104C6800000000000000000000000000000000003C
:104F98000000000000000000440A0020000000009B
:104FA800000000003C0400203C04002044040020D1
:104FB800440400204C0400204C0400205404002029
:104FC800540400205C0400205C04002064040020D9
:104FD800640400206C0400206C0400207404002089
:104FE800740400207C0400207C0400208404002039
:104FF800840400208C0400208C04002094040020E9
:10500800940400209C0400209C040020A404002098
:10501800A4040020AC040020AC040020B404002048
:10502800B4040020BC040020BC040020C4040020F8
:10503800C4040020CC040020CC040020D4040020A8
:10504800D4040020DC040020DC040020E404002058
:10505800E4040020EC040020EC040020F404002008
:10506800F4040020FC040020FC04002004050020B7
:10507800040500200C0500200C0500201405002064
:10508800140500201C0500201C0500202405002014
:10509800240500202C0500202C05002034050020C4
:1050A800340500203C0500203C0500204405002074
:1050B800440500204C0500204C0500205405002024
:1050C800540500205C0500205C05002064050020D4
:1050D800640500206C0500206C0500207405002084
:1050E800740500207C0500207C0500208405002034
:1050F800840500208C0500208C05002094050020E4
:10510800940500209C0500209C050020A405002093
:10511800A4050020AC050020AC050020B405002043
:10512800B4050020BC050020BC050020C4050020F3
:10513800C4050020CC050020CC050020D4050020A3
:10514800D4050020DC050020DC050020E405002053
:10515800E4050020EC050020EC050020F405002003
:10516800F4050020FC050020FC05002004060020B2
:10517800040600200C0600200C060020140600205F
:10518800140600201C0600201C060020240600200F
:10519800240600202C0600202C06002034060020BF
:1051A800340600203C0600203C060020440600206F
:1051B800440600204C0600204C060020540600201F
:1051C800540600205C0600205C06002064060020CF
:1051D800640600206C0600206C060020740600207F
:1051E800740600207C0600207C060020840600202F
:1051F800840600208C0600208C06002094060020DF
:10520800940600209C0600209C060020A40600208E
:10521800A4060020AC060020AC060020B40600203E
:10522800B4060020BC060020BC060020C4060020EE
:10523800C4060020CC060020CC060020D40600209E
:10524800D4060020DC060020DC060020E40600204E
:10525800E4060020EC060020EC060020F4060020FE
:10526800F4060020FC060020FC06002004070020AD
:10527800040700200C0700200C070020140700205A
:10528800140700201C0700201C070020240700200A
:10529800240700202C0700202C07002034070020BA
:1052A800340700203C0700203C070020440700206A
:1052B800440700204C0700204C070020540700201A
:1052C800540700205C0700205C07002064070020CA
:1052D800640700206C0700206C070020740700207A
:1052E800740700207C0700207C070020840700202A
:1052F800840700208C0700208C07002094070020DA
:10530800940700209C0700209C070020A407002089
:10531800A4070020AC070020AC070020B407002039
:10532800B4070020BC070020BC070020C4070020E9
:10533800C4070020CC070020CC070020D407002099
:10534800D4070020DC070020DC070020E407002049
:10535800E4070020EC070020EC070020F4070020F9
:10536800F4070020FC070020FC07002004080020A8
:10537800040800200C0800200C0800201408002055
:10538800140800201C0800201C0800202408002005
:10539800240800202C0800202C08002034080020B5
:0C53A80034080020FFFFFFFF000002009F
:0400000508000D0DD5
:00000001FF
