:020000040800F2
:1000000000000220610C0008A50A0008A70A0008E9
:10001000A90A0008AB0A0008AD0A000800000000A9
:10002000000000000000000000000000D12A0008CD
:10003000AF0A000800000000712B0008D52B000853
:10004000B10C0008B10C0008B10C0008B10C00089C
:10005000B10C0008B10C0008B10C0008B10C00088C
:10006000B10C0008B10C0008B10C0008B10C00087C
:10007000B10C0008B10C0008B10C0008B10C00086C
:10008000B10C0008B10C0008B10C0008B10C00085C
:10009000B10C0008B10C0008B10C0008B10C00084C
:1000A000B10C0008B10A0008B10C0008B10C00083E
:1000B000B10C0008B10C0008B10C0008B10C00082C
:1000C000B10C0008B10C0008B10C0008B10C00081C
:1000D000B10C0008B10C0008B10C0008B10C00080C
:1000E000B10C0008B10C0008B10C0008B10C0008FC
:1000F000B10C0008B10C0008B10C0008B10C0008EC
:10010000B10C0008B10C0008B10C0008B10C0008DB
:10011000B10C0008B10C0008B10C0008B10C0008CB
:10012000B10C0008B10C0008B10C0008B10C0008BB
:10013000B10C0008B10C0008B10C0008B10C0008AB
:10014000B10C0008B10C0008B10C0008B10C00089B
:10015000B10C0008B10C0008B10C0008B10C00088B
:10016000B10C0008B10C0008B10C0008B10C00087B
:10017000B10C0008B10C0008B10C0008B10C00086B
:10018000B10C0008B10C0008B10C0008B10C00085B
:10019000B10C000800000000B10C0008B10C000810
:1001A000B10C0008B10C0008B10C0008B10C00083B
:1001B000B10C0008B10C0008B10C0008B10C00082B
:1001C000B10C0008B10C0008B10C0008B10C00081B
:0801D000B10C0008B10C00089D
:1002000010B5054C237833B9044B13B10448AFF350
:1002100000800123237010BD54080020000000005E
:10022000FC4F000808B5034B1BB103490348AFF36B
:10023000008008BD0000000058080020FC4F0008A6
:1002400053B94AB9002908BF00281CBF4FF0FF313D
:100250004FF0FF3000F074B9ADF1080C6DE904CE39
:1002600000F006F8DDF804E0DDE9022304B0704791
:100270002DE9F047089D04468E46002B4DD18A4259
:10028000944669D9B2FA82F252B101FA02F3C2F18C
:10029000200120FA01F10CFA02FC41EA030E94401D
:1002A0004FEA1C48210CBEFBF8F61FFA8CF708FB3E
:1002B00016E341EA034306FB07F199420AD91CEB16
:1002C000030306F1FF3080F01F81994240F21C8148
:1002D000023E63445B1AA4B2B3FBF8F008FB103390
:1002E00044EA034400FB07F7A7420AD91CEB0404C5
:1002F00000F1FF3380F00A81A74240F20781644495
:10030000023840EA0640E41B00261DB1D440002319
:10031000C5E900433146BDE8F0878B4209D9002D7D
:1003200000F0EF800026C5E9000130463146BDE807
:10033000F087B3FA83F6002E4AD18B4202D3824271
:1003400000F2F980841A61EB030301209E46002D20
:10035000E0D0C5E9004EDDE702B9FFDEB2FA82F275
:10036000002A40F09280A1EB0C014FEA1C471FFAD3
:100370008CFE0126200CB1FBF7F307FB131140EABA
:1003800001410EFB03F0884208D91CEB010103F187
:10039000FF3802D2884200F2CB804346091AA4B249
:1003A000B1FBF7F007FB101144EA01440EFB00FE1D
:1003B000A64508D91CEB040400F1FF3102D2A64582
:1003C00000F2BB800846A4EB0E0440EA03409CE721
:1003D000C6F12007B34022FA07FC4CEA030C20FACE
:1003E00007F401FA06F31C43F9404FEA1C4900FAEE
:1003F00006F3B1FBF9F8200C1FFA8CFE09FB18116B
:1004000040EA014108FB0EF0884202FA06F20BD9DD
:100410001CEB010108F1FF3A80F08880884240F22D
:100420008580A8F102086144091AA4B2B1FBF9F071
:1004300009FB101144EA014100FB0EFE8E4508D96C
:100440001CEB010100F1FF346CD28E456AD90238F1
:10045000614440EA0840A0FB0294A1EB0E01A142D6
:10046000C846A64656D353D05DB1B3EB080261EB44
:100470000E0101FA07F722FA06F3F1401F43C5E91E
:10048000007100263146BDE8F087C2F12003D84054
:100490000CFA02FC21FA03F3914001434FEA1C4796
:1004A0001FFA8CFEB3FBF7F007FB10360B0C43EA88
:1004B000064300FB0EF69E4204FA02F408D91CEB38
:1004C000030300F1FF382FD29E422DD90238634436
:1004D0009B1B89B2B3FBF7F607FB163341EA0341D6
:1004E00006FB0EF38B4208D91CEB010106F1FF3825
:1004F00016D28B4214D9023E6144C91A46EA00461C
:1005000038E72E46284605E70646E3E61846F8E6AD
:100510004B45A9D2B9EB020864EB0C0E0138A3E7F6
:100520004646EAE7204694E74046D1E7D0467BE7D7
:10053000023B614432E7304609E76444023842E74F
:10054000704700BF844641EA000313F003036DD1F6
:10055000403A41D351F8043B40F8043B51F8043B86
:1005600040F8043B51F8043B40F8043B51F8043B8D
:1005700040F8043B51F8043B40F8043B51F8043B7D
:1005800040F8043B51F8043B40F8043B51F8043B6D
:1005900040F8043B51F8043B40F8043B51F8043B5D
:1005A00040F8043B51F8043B40F8043B51F8043B4D
:1005B00040F8043B51F8043B40F8043B51F8043B3D
:1005C00040F8043B51F8043B40F8043B51F8043B2D
:1005D00040F8043B403ABDD2303211D351F8043BCD
:1005E00040F8043B51F8043B40F8043B51F8043B0D
:1005F00040F8043B51F8043B40F8043B103AEDD27C
:100600000C3205D351F8043B40F8043B043AF9D2CC
:10061000043208D0D2071CBF11F8013B00F8013B9F
:1006200001D30B8803806046704700BF082A13D3AC
:100630008B078DD010F003038AD0C3F10403D21AC4
:10064000DB071CBF11F8013B00F8013B80D331F8F8
:10065000023B20F8023B7BE7043AD9D3013A11F878
:10066000013B00F8013BF9D20B7803704B784370E3
:100670008B78837060467047000000000000000027
:1006800090F800F06DE9024520F007016FF0000CD2
:1006900010F0070491F820F040F049804FF000047A
:1006A0006FF00700D1E9002391F840F000F1080055
:1006B00082FA4CF2A4FA8CF283FA4CF3A2FA8CF38D
:1006C0004BBBD1E9022382FA4CF200F10800A4FAF4
:1006D0008CF283FA4CF3A2FA8CF3E3B9D1E9042348
:1006E00082FA4CF200F10800A4FA8CF283FA4CF37F
:1006F000A2FA8CF37BB9D1E9062301F1200182FA39
:100700004CF200F10800A4FA8CF283FA4CF3A2FA3E
:100710008CF3002BC6D0002A04BF04301A4612BA4C
:10072000B2FA82F2FDE8024500EBD2007047D1E94F
:10073000002304F00305C4F100004FEAC50514F0DE
:10074000040F91F840F00CFA05F562EA05021CBFAF
:1007500063EA050362464FF00004A9E700000000C9
:1007600001F0FF01102A2BDB10F0070F08D010F862
:10077000013B013A8B422DD010F0070F42B3F6D166
:10078000F0B441EA012141EA014122F007047FF07F
:1007900000070023F0E80256083C85EA010586EAD6
:1007A000010685FA47F5A3FA87F586FA47F6A5FA12
:1007B00087F68EB9EED1F0BC01F0FF0102F007021E
:1007C00032B110F8013B013A83EA010313B1F8D1C9
:1007D0000020704701387047002D06BF35460338AA
:1007E000073815F0010F07D1013015F4807F02BFE3
:1007F000013015F4C03F0130F0BC0138704700BF34
:1008000008B54FF400714FF0904000F0BAFB4FF480
:100810007A7002F0B8F8F4E708B5044802F0EAFF8D
:100820004FF47A7002F0AFF8F7E700BF54500008B9
:1008300010B58AB0124C0DF1140CA646BEE80F009C
:10084000ACE80F00DEF80030CCF80030002105A83D
:1008500002F07FF80B4B1860EE4604F1140CBCE874
:100860000F00AEE80F00DCF80030CEF800300021B9
:10087000684602F06EF8044B18600AB010BD00BF65
:1008800014500008700800207408002010B588B0CB
:10089000002403940494059406940794184BDA6C8E
:1008A00042F02002DA64DA6C02F020020092009A30
:1008B000DA6C42F00402DA64DA6C02F004020192AB
:1008C000019ADA6C42F00102DA64DB6C03F0010396
:1008D0000293029B22464FF400714FF0904000F0CB
:1008E0004BFB4FF400730393012304930594069488
:1008F00003A94FF0904000F055FA08B010BD00BFBA
:100900000010024000B583B001904FF6FF73012242
:1009100001A9034801F095FE019803B05DF804FBBE
:10092000C808002008B50268034B9A4200D008BDF1
:1009300000F0CEF9FBE700BF002C014072B6FEE7E5
:1009400000B595B03822002106A802F0B3FE0020C1
:100950000190029003900490059000F01BFB01238E
:1009600006934FF48033079302230D9303220E92D4
:1009700006220F925522109211931293139306A8F8
:1009800000F0C2FB80B90F230193032302930023DD
:1009900003930493059304210DEB010000F06CFE1A
:1009A00020B915B05DF804FBFFF7C8FFFFF7C6FFDD
:1009B00008B500F07EF9FFF7C3FFFFF767FF00F00F
:1009C000D7F8FFF735FF01F0BFFFFEE700B583B0B2
:1009D0000E4B1A6E42F001021A661A6E02F0010204
:1009E0000092009A9A6D42F080529A659B6D03F0D6
:1009F00080530193019B00220F216FF0010000F052
:100A00008BF900F04DFB03B05DF804FB00100240D1
:100A100030B589B004461E4B1A6E42F400621A6665
:100A20001B6E03F400630193019B02A903A800F06D
:100A300049FF00F035FF03461648A0FB03239B0C3B
:100A4000013B1548154A026040F2E732C26043603C
:100A500000230361836001F0DFFA054610B12846E8
:100A600009B030BD0C4801F009F905460028F6D15F
:100A7000192000F089F90F2C01D90125EFE7002298
:100A80002146192000F048F9054B1C60E7E700BF3C
:100A90000010024083DE1B4378080020002C014038
:100AA00008000020FEE7FEE7FEE7FEE7FEE77047EE
:100AB00008B5024801F030F908BD00BF78080020F1
:100AC00070B50C461646002506E0AFF300802146BF
:100AD00001F8010B01350C46B542F6DB304670BD1E
:100AE00070B50C461646002504E014F8010BFFF71C
:100AF00009FF0135B542F8DB304670BD4FF0FF30DD
:100B000070474FF400534B6000207047012070473E
:100B10000020704710B503460C4A0D490D48006887
:100B200040B10C4800680344521A934206D8094A5F
:100B3000136010BD0748084C0460F2E702F090FD16
:100B40000C2303604FF0FF30F3E700BF00000220EA
:100B500000040000C408002030170020034AD2F827
:100B6000883043F47003C2F88830704700ED00E02D
:100B700008B51748174B03604FF4E1334360002377
:100B80008360C36003610C2242618361C3610362BD
:100B90004362836201F0FEFD70B900210C4801F050
:100BA00083FE60B900210A4801F0A3FE50B908484D
:100BB00001F05BFE48B908BDFFF7C0FEEDE7FFF7A7
:100BC000BDFEEFE7FFF7BAFEF1E7FFF7B7FEF2E78A
:100BD000C80800200038014010B59CB00446002130
:100BE0001791189119911A911B91542202A802F0A1
:100BF00061FD2268174B9A4201D01CB010BD012341
:100C0000029302A800F07CFE00BB134B1A6E42F464
:100C100080421A661A6E02F480420092009ADA6CE0
:100C200042F00402DA64DB6C03F004030193019BDD
:100C30003023179302231893002319931A93072341
:100C40001B9317A9054800F0ADF8D6E7FFF776FE2D
:100C5000DBE700BF003801400010024000080048F8
:100C60000D4885460D480E490E4A002302E0D4582F
:100C7000C4500433C4188C42F9D30B4A0B4C0023E4
:100C800001E013600432A242FBD3FFF767FF02F0DA
:100C9000EDFCFFF78DFEFEE70000022000000020C3
:100CA00054080020C05000085408002030170020CD
:100CB000FEE710B5032000F01DF80F20FFF7A8FE97
:100CC00010B10124204610BD0446FFF77FFEF9E76E
:100CD000034A1368034909680B441360704700BF57
:100CE0009009002004000020014B1868704700BFE5
:100CF00090090020074AD36823F4E0631B041B0C0F
:100D0000000200F4E060034343F0BF6343F40033A8
:100D1000D360704700ED00E000B5194BDB68C3F30A
:100D20000223C3F1070CBCF1040F28BF4FF0040CE1
:100D300003F1040EBEF1060F18D9033B4FF0FF3E3E
:100D40000EFA0CFC21EA0C0199400EFA03F322EA98
:100D50000303194300280BDB0901C9B200F160400D
:100D600000F5614080F800135DF804FB0023E5E71F
:100D700000F00F000901C9B2024B1954F4E700BF9B
:100D800000ED00E014ED00E0002807DB00F01F029A
:100D9000400901239340024A42F82030704700BFC7
:100DA00000E100E0F0B583B0002362E085685E00FA
:100DB0000324B44025EA0405CC68B4402C43846085
:100DC000446824EA0C0C4C68C4F300149C4044EAC8
:100DD0000C0444605EE0DD08083550F8256003F03F
:100DE00007044FEA840C0F2404FA0CF426EA040EDC
:100DF0000C6904FA0CF444EA0E0440F8254060E063
:100E0000052400E0002404FA0EF42C430CF1020C3B
:100E1000554D45F82C40554CA568D44325EA0206AB
:100E20004F6817F4801F01D042EA05064F4DAE60AF
:100E3000ED6804EA05064F6817F4001F01D042EA86
:100E400005064A4DEE606D6804EA05064F6817F422
:100E5000003F01D042EA0506444D6E602D682C40EB
:100E60004E6816F4803F01D042EA05043F4A146000
:100E700001330A6832FA03F474D04FF0010C0CFA13
:100E800003FC1CEA0202F3D04C6804F00304013CAA
:100E9000012C8BD94C6804F00304032C0CD0C468DB
:100EA0005D004FF0030C0CFA05FC24EA0C0C8C6876
:100EB000AC4044EA0C04C4604C6804F00304022C07
:100EC00089D004684FEA430E4FF0030C0CFA0EFC75
:100ED00024EA0C0C4C6804F0030404FA0EF444EA0F
:100EE0000C0404604C6814F4403FC1D0204C256EC3
:100EF00045F001052566246E04F001040194019C6F
:100F00004FEA930C0CF10205174C54F8255003F0EE
:100F100003044FEA840E0F2404FA0EF425EA0405B4
:100F2000B0F1904F3FF46EAF124CA04212D004F5D6
:100F30008064A04210D004F58064A0420ED004F575
:100F40008064A0420CD004F58064A0423FF458AF06
:100F5000062458E7012456E7022454E7032452E705
:100F6000042450E703B0F0BD00000140000401403C
:100F700000100240000400480AB18161704781629C
:100F80007047436901EA030221EA030141EA024191
:100F900081617047002836D13E4B1B6803F4C06363
:100FA000B3F5806F08D03B4AD2F8803023F48073C9
:100FB000C2F8803000207047364AD2F8803023F4DF
:100FC0008073C2F88030136823F4C06343F4007365
:100FD0001360314B1B68322202FB03F32F4AA2FB42
:100FE00003239B0C013300E0013B2A4A526912F4AF
:100FF000806F01D0002BF7D1264B5B6913F4806F13
:1010000044D100207047B0F5007F08D0214A136812
:1010100023F4C06343F480631360002070471D4BCA
:101020001B6803F4C063B3F5806F08D0194AD2F887
:10103000803043F48073C2F8803000207047154A36
:10104000D2F8803043F48073C2F88030136823F400
:10105000C06343F4007313600F4B1B68322202FB22
:1010600003F30E4AA2FB03239B0C013300E0013B78
:10107000084A526912F4806F01D0002BF7D1054B5A
:101080005B6913F4806F03D1002070470320704721
:1010900003207047007000400000002083DE1B43E7
:1010A000024A936843F480439360704700700040A5
:1010B000124BDA6802F00302D868C0F30310431C35
:1010C000032A11D00E48B0FBF3F00C4BDB68C3F3DE
:1010D000062303FB00F0094BDB68C3F341630133D4
:1010E0005B00B0FBF3F070470648B0FBF3F0034B36
:1010F000DB68C3F3062303FB00F0ECE700100240BB
:101100000024F40000366E01002800F0548270B50F
:1011100082B00446036813F0010F37D0A44A9368E5
:1011200003F00C03D26802F003020C2B23D0082B2F
:1011300023D06368B3F5803F4ED0B3F5A02F51D0D4
:101140009B4B1A6822F480321A601A6822F48022BB
:101150001A606368002B52D0FFF7C6FD0546944B1A
:101160001B6813F4003F11D1FFF7BEFD401B64283C
:10117000F5D9032028E2032AD9D18D4B1B6813F43B
:10118000003F03D06368002B00F01782236813F040
:10119000020F5DD0864A936803F00C03D26802F018
:1011A00003020C2B3AD0042B3AD0E368002B75D005
:1011B0007F4A136843F480731360FFF795FD05467B
:1011C0007B4B1B6813F4806F5FD1FFF78DFD401BD5
:1011D0000228F5D90320F7E1754A136843F48033F8
:1011E0001360B6E703F18043A3F53C331A6842F479
:1011F00080221A601A6842F480321A60A9E7FFF769
:1012000073FD05466A4B1B6813F4003FBED0FFF721
:101210006BFD401B6428F5D90320D5E1022AC2D119
:10122000634B1B6813F4806F03D0E368002B00F05E
:10123000C6815F4A536823F0FE43216943EA016394
:1012400053605C4B1868FFF7E3FB002840F0B9815E
:10125000236813F0080F4CD063699BB3544AD2F84B
:10126000943043F00103C2F89430FFF73DFD05468A
:101270004F4BD3F8943013F0020F3AD1FFF734FDFF
:10128000401B0228F4D903209EE1494A536823F009
:10129000FE43216943EA01635360D9E7444A136876
:1012A00023F480731360FFF71FFD0546404B1B6856
:1012B00013F4806FCCD0FFF717FD401B0228F5D93F
:1012C000032081E13A4AD2F8943023F00103C2F8B6
:1012D0009430FFF709FD0546354BD3F8943013F0F1
:1012E000020F06D0FFF700FD401B0228F4D90320AF
:1012F0006AE1236813F0040F00F081802C4B9B6D92
:1013000013F0805F36D12A4B9A6D42F080529A6575
:101310009B6D03F080530193019B0125264B1B68B5
:1013200013F4807F28D0A368012B39D0052B45D03A
:101330001F4BD3F8902022F00102C3F89020D3F87D
:10134000902022F00402C3F89020A368002B43D021
:10135000FFF7CAFC0646164BD3F8903013F0020F85
:101360004CD1FFF7C1FC801B41F288339842F2D97F
:10137000032029E10025D1E70F4A136843F4807365
:101380001360FFF7B1FC06460B4B1B6813F4807F1C
:10139000C9D1FFF7A9FC801B0228F5D9032013E16E
:1013A000034AD2F8903043F00103C2F89030CCE702
:1013B0000010024008000020007000408A4BD3F863
:1013C000902042F00402C3F89020D3F8902042F01D
:1013D0000102C3F89020B8E7FFF786FC0646824B6F
:1013E000D3F8903013F0020F08D0FFF77DFC801B7C
:1013F00041F288339842F2D90320E5E0E5B9236849
:1014000013F0200F35D0A369E3B1774AD2F89830B2
:1014100043F00103C2F89830FFF766FC0546724BB3
:10142000D3F8983013F0020F23D1FFF75DFC401B77
:101430000228F4D90320C7E06B4A936D23F0805350
:101440009365DCE7684AD2F8983023F00103C2F8CC
:101450009830FFF749FC0546634BD3F8983013F0FA
:10146000020F06D0FFF740FC401B0228F4D90320EE
:10147000AAE0E369002B00F0A6805B4A926802F0C4
:101480000C020C2A69D0022B1DD0574B1A6822F08F
:1014900080721A60DA6822F00302DA60DA6822F0F9
:1014A000887222F48032DA60FFF71EFC04464E4B4D
:1014B0001B6813F0007F4ED0FFF716FC001B0228BC
:1014C000F5D9032080E0484A136823F08073136045
:1014D000FFF70AFC0546444B1B6813F0007F06D05B
:1014E000FFF702FC401B0228F5D903206CE03E4ABE
:1014F000D3683E491940236A606A013843EA001301
:10150000A06A43EA0023206B4008013843EA4053B5
:10151000606B4008013843EA4063E06A43EAC06315
:101520000B43D360136843F080731360D36843F0B8
:101530008073D360FFF7D8FB04462B4B1B6813F076
:10154000007F06D1FFF7D0FB001B0228F5D903204E
:101550003AE0002038E0002036E0012B36D0224B64
:10156000DB6803F00301226A914231D103F0F002FB
:10157000616A0139B2EB011F2CD103F4FE42A16A6A
:10158000B2EB012F28D103F07842E16AB2EBC16FD0
:1015900024D103F4C001226B5208013AB1EB425F3F
:1015A0001ED103F0C063626B5208013AB3EB426F85
:1015B00018D1002008E001207047012004E001203C
:1015C00002E0012000E0002002B070BD0120FBE736
:1015D0000120F9E70120F7E70120F5E70120F3E713
:1015E0000120F1E70120EFE7001002400C809F018D
:1015F0001E4B9B6803F00C03042B33D01B4B9B68E2
:1016000003F00C03082B2FD0184B9B6803F00C033E
:101610000C2B01D000207047144BDA6802F0030253
:10162000D868C0F30310431C032A11D01048B0FB44
:10163000F3F00E4BDB68C3F3062303FB00F00B4B08
:10164000DB68C3F3416301335B00B0FBF3F0704729
:101650000848B0FBF3F0054BDB68C3F3062303FB3C
:1016600000F0ECE702487047024870470010024063
:101670000024F40000366E01002800F0E680F8B582
:101680000C460546744B1B6803F00F038B420BD2CC
:10169000714A136823F00F030B431360136803F0C0
:1016A0000F038B4240F0D3802E6816F001065FD006
:1016B0006B68032B2FD0022B4DD0684B1B6813F4A3
:1016C000806F00F0C680FFF793FF654B98424DD9BD
:1016D000624A936823F0F00343F08003936080260E
:1016E0005E4A936823F0030369680B439360FFF736
:1016F000FBFA0746594B9B6803F00C036A68B3EB8F
:10170000820F35D0FFF7F0FAC01B41F288339842C0
:10171000F0D9032078E0514B1B6813F0007F01D112
:10172000012071E0FFF7C4FC4D4B98421AD94B4B96
:101730009B6813F0F00F05D02E6816F00206CFD08C
:10174000AB688BB9454A936823F0F00343F08003FC
:1017500093608026C4E7414B1B6813F4003FB2D16D
:10176000012051E00026BBE70026B9E70026B7E7D5
:101770002B6813F0020F48D013F0040F04D0374A3F
:10178000936843F4E06393602B6813F0080F06D06E
:10179000324A936823F47C5343F4E06393602F4A06
:1017A000936823F0F003A9680B4393602A4B1B68EE
:1017B00003F00F03A34230D82B6813F0040F06D0B8
:1017C000264A936823F4E063E9680B4393602B682F
:1017D00013F0080F07D0214A936823F46053296956
:1017E00043EAC1039360FFF703FF1C4B9B68C3F3FD
:1017F00003131C4AD35C03F01F03D8401A4B186034
:101800001A4B1868FFF704F9F8BD802ECED1134AA1
:10181000936823F0F0039360C8E70F4A136823F03E
:101820000F0323431360FFF75FFA06460A4B1B685A
:1018300003F00F03A342BFD0FFF756FA801B41F21B
:1018400088339842F2D90320DEE701207047012057
:10185000DAE70120D8E700BF002002400010024074
:1018600000B4C4045C500008000000200800002000
:10187000014B1868704700BF0000002008B5FFF753
:10188000F7FF054B9B68C3F30223044AD35C03F0C4
:101890001F03D84008BD00BF001002406C50000874
:1018A00008B5FFF7E5FF054B9B68C3F3C223044A65
:1018B000D35C03F01F03D84008BD00BF00100240F6
:1018C0006C5000080F2303600B4B9A6802F0030270
:1018D00042609A6802F0F00282609A6802F4E06264
:1018E000C2609B68DB0803F4E0630361034B1B6881
:1018F00003F00F030B60704700100240002002400D
:10190000F0B583B00446036813F4002F6ED0354B56
:101910009B6D13F0805F1ED1324B9A6D42F0805266
:101920009A659B6D03F080530193019B01262E4A1B
:10193000136843F480731360FFF7D6F905462A4B0A
:101940001B6813F4807F08D1FFF7CEF9401B0228F3
:10195000F5D9032502E00026E9E7002545BB214B28
:10196000D3F8903013F4407315D0226D9A4212D000
:101970001C4AD2F8903023F44073D2F8901041F40E
:101980008031C2F89010D2F8901021F48031C2F862
:101990009010C2F8903013F0010F10D145B9114AE0
:1019A000D2F8903023F44073216D0B43C2F890308D
:1019B000EEB10C4A936D23F08053936517E0FFF767
:1019C00093F90746074BD3F8903013F0020FE5D197
:1019D000FFF78AF9C01B41F288339842F2D90325F8
:1019E000DCE700BF001002400070004000252368C3
:1019F00013F0010F08D09F4AD2F8883023F0030378
:101A000061680B43C2F88830236813F0020F08D0D6
:101A1000984AD2F8883023F00C03A1680B43C2F82F
:101A20008830236813F0040F08D0924AD2F8883027
:101A300023F03003E1680B43C2F88830236813F0C9
:101A4000080F08D08B4AD2F8883023F0C0032169F0
:101A50000B43C2F88830236813F0100F08D0854A72
:101A6000D2F8883023F4407361690B43C2F88830A0
:101A7000236813F0200F08D07E4AD2F8883023F470
:101A80004063A1690B43C2F88830236813F0400F0C
:101A900008D0784AD2F8883023F44053E1690B43E8
:101AA000C2F88830236813F0800F08D0714AD2F84A
:101AB000883023F44043216A0B43C2F888302368FE
:101AC00013F4807F08D06B4AD2F8883023F4403377
:101AD000616A0B43C2F88830236813F4003F08D0D2
:101AE000644AD2F89C3023F00303A16A0B43C2F886
:101AF0009C30236813F4007F08D05E4AD2F8883007
:101B000023F44023E16A0B43C2F88830236813F4BE
:101B1000806F0CD0574AD2F8883023F44013216BE1
:101B20000B43C2F88830236BB3F5801F79D023684C
:101B300013F4006F0CD04F4AD2F8883023F44003DE
:101B4000616B0B43C2F88830636BB3F5800F6DD0C7
:101B5000236813F4805F0CD0464AD2F8883023F013
:101B60004073A16B0B43C2F88830A36BB3F1807F45
:101B700061D0236813F4005F0CD03E4AD2F888305D
:101B800023F04063E16B0B43C2F88830E36BB3F1A1
:101B9000006F55D0236813F4804F0CD0354AD2F82B
:101BA000883023F04063216C0B43C2F88830236CEB
:101BB000B3F1006F49D0236813F4004F0CD02D4AC5
:101BC000D2F8883023F04053616C0B43C2F8883060
:101BD000636CB3F1805F3DD0236813F4803F0CD079
:101BE000244AD2F8883023F04043A16C0B43C2F85A
:101BF0008830A36CB3F1804F31D0236813F4802F69
:101C00000CD01C4AD2F89C3023F44013E16C0B43F7
:101C1000C2F89C30E36CB3F5001F25D0284603B012
:101C2000F0BDD36843F48013D36080E7D36843F4F6
:101C30008013D3608CE7D36843F48013D36098E7B4
:101C4000D36843F48013D360A4E7D36843F48013CC
:101C5000D360B0E7D36843F48033D360BCE7D36884
:101C600043F48033D360C8E7D36843F48013D36070
:101C7000D4E700BF001002407047000090F83D30EC
:101C8000DBB2012B3AD1022380F83D300268D368E1
:101C900043F00103D36003681B4A934220D0B3F1A1
:101CA000804F1DD0A2F59432934219D002F5806284
:101CB000934215D002F58062934211D002F594321E
:101CC00093420DD002F54062934209D002F5805252
:101CD000934205D01A6842F001021A600020704752
:101CE00099680A4A0A40062A0AD0B2F5803F09D00C
:101CF0001A6842F001021A60002070470120704704
:101D00000020704700207047002C014007000100B0
:101D1000704770477047704710B5044603681A69EA
:101D200012F0020F12D0DA6812F0020F0ED06FF02C
:101D300002021A610123037703689B6913F0030F02
:101D400000F09F80FFF7E5FF0023237723681A69DF
:101D500012F0040F13D0DA6812F0040F0FD06FF0F6
:101D600004021A610223237723689B6913F4407FDE
:101D700000F08D802046FFF7CCFF002323772368F7
:101D80001A6912F0080F12D0DA6812F0080F0ED09C
:101D90006FF008021A61042323772368DB6913F0CC
:101DA000030F7BD02046FFF7B4FF0023237723687F
:101DB0001A6912F0100F12D0DA6812F0100F0ED05C
:101DC0006FF010021A61082323772368DB6913F48C
:101DD000407F6AD02046FFF79CFF002323772368CB
:101DE0001A6912F0010F03D0DA6812F0010F63D103
:101DF00023681A6912F0800F03D0DA6812F0800F9E
:101E000061D123681A6912F4807F03D0DA6812F076
:101E1000800F5FD123681A6912F0400F03D0DA688F
:101E200012F0400F5DD123681A6912F0200F03D021
:101E3000DA6812F0200F5BD123681A6912F4801F50
:101E400003D0DA6812F4801F59D123681A6912F49A
:101E5000001F03D0DA6812F4001F57D123681A69F3
:101E600012F4800F03D0DA6812F4800F55D1236882
:101E70001A6912F4000F03D0DA6812F4000F53D17C
:101E800010BDFFF745FF2046FFF744FF5CE7204603
:101E9000FFF73EFF2046FFF73DFF6EE72046FFF7C6
:101EA00037FF2046FFF736FF7FE72046FFF730FF7A
:101EB0002046FFF72FFF90E76FF001021A612046DE
:101EC000FEF730FD94E76FF080021A61204600F0C3
:101ED000D4F896E76FF480721A61204600F0CEF8CD
:101EE00098E76FF040021A612046FFF714FF9AE767
:101EF0006FF020021A61204600F0BEF89CE76FF4F4
:101F000080121A61204600F0BAF89EE76FF40012C2
:101F10001A61204600F0B4F8A0E76FF480021A615D
:101F2000204600F0AEF8A2E76FF400021A612046E6
:101F300000F0A8F8A4E700000368364A904216D0E3
:101F4000B0F1804F13D0A2F5943290420FD002F539
:101F5000806290420BD002F58062904207D002F579
:101F60009432904203D002F5E052904203D123F024
:101F700070034A681343274A904222D0B0F1804F41
:101F80001FD0A2F5943290421BD002F5806290429D
:101F900017D002F58062904213D002F5943290423D
:101FA0000FD002F5406290420BD002F58062904261
:101FB00007D002F58062904203D002F500629042A1
:101FC00003D123F44073CA68134323F080034A69A2
:101FD000134303608B68C3620B6883620D4B9842A6
:101FE00013D003F5006398420FD003F54063984285
:101FF0000BD003F58063984207D003F580639842C5
:1020000003D003F50063984201D10B6903630123F8
:1020100043617047002C014060B310B5044690F84E
:102020003D3013B3022384F83D30214651F8040BB0
:10203000FFF782FF012384F8483084F83E3084F8AB
:102040003F3084F8403084F8413084F8423084F8DE
:10205000433084F8443084F8453084F8463084F8BE
:10206000473084F83D30002010BD80F83C30FFF749
:1020700003FED7E7012070477047704770477047ED
:102080007047704770477047704770477047704798
:102090007047704770477047124BC0F89030124B32
:1020A000C0F89430114BC0F89830114BC0F89C30F8
:1020B000104BC0F8A030104BC0F8A4300F4BC0F844
:1020C000A8300F4BC0F8AC300E4BC0F8B0300E4B00
:1020D000C0F8B4300D4BC0F8B8300D4BC0F8BC3070
:1020E000704700BF89200008872000088D20000865
:1020F0008B2000088F200008912000089320000802
:10210000952000086528000867280008692800084D
:102110009720000870B5044601688368026913437C
:1021200042691343C26913430868964A0240134345
:102130000B602268536823F44053E1680B435360FB
:10214000A1692268904B9A4201D0236A194393688F
:1021500023F06E4323F430630B4393602268D36A09
:1021600023F00F03616A0B43D3622368874A9342CB
:1021700010D0874A934221D0864A934237D0864A6C
:1021800093425CD0854A93426BD07F4A93427DD084
:1021900010223AE002F55842D2F8882002F00302F9
:1021A000032A09D8DFE802F00204870601222CE0A6
:1021B00004222AE0082228E0102226E002F5E63276
:1021C000D2F8882002F00C020C2A0ED8DFE802F0C8
:1021D000070D0D0D090D0D0D750D0D0D0B000022D8
:1021E00013E0042211E008220FE010220DE002F5B6
:1021F000E432D2F8882002F03002202A5FD01AD8C8
:10220000002A5ED0102A5ED104225F498B4276D02C
:10221000E069B0F5004F00F0C980082A00F234816F
:10222000DFE812F0F7001901F50032011C0132015C
:10223000320132011F01302A47D10822E5E702F5B9
:10224000E232D2F8882002F0C002802A3FD004D8BF
:10225000FAB3402A3FD10422D7E7C02A3DD1082251
:10226000D3E702F5E032D2F8882002F44072B2F5EA
:10227000007F34D005D8A2B3B2F5807F33D10422D9
:10228000C3E7B2F5407F30D10822BEE702F5C8327D
:10229000D2F8882002F44062B2F5006F27D005D84A
:1022A0003AB3B2F5806F26D10422AEE7B2F5406FA3
:1022B00023D10822A9E70222A7E70222A5E70222EA
:1022C000A3E70022A1E710229FE710229DE7022248
:1022D0009BE7002299E7102297E7102295E7022258
:1022E00093E7002291E710228FE710228DE7022268
:1022F0008BE7002289E7102287E7102285E7082A6A
:1023000000F2B280DFE802F008B03BB038B0B0B005
:1023100005004FF4004004E0FFF7B0FA002800F099
:10232000A580626A1E4B33F81220B0FBF2F3656899
:1023300005EB4501994200F29B80B3EB053F00F2AB
:102340009980002633463146FDF77AFF090241EABB
:10235000106100026B08C0182A46334641F10001A3
:10236000FDF76EFFA0F540720E4B9A4200F284809A
:102370002368D860304665E0FFF73AF9CEE70A48AF
:10238000CFE700BFF369FFCF008000400038014075
:102390000044004000480040004C00400050004015
:1023A00074500008FFFC0F000024F400082A65D8D0
:1023B000DFE802F0072705642A6464640B003548EF
:1023C00003E0FFF75BFA00285AD0626A324B33F819
:1023D0001230B0FBF3F06268530803EB4000B0FB2F
:1023E000F2F0A0F110024FF6EF739A424AD883B28E
:1023F00023F00F03C0F3420018432368D860002085
:1024000020E0FFF74DFADEE7FFF7F2F8DBE72148BF
:1024100003E0FFF733FA002838D0626A1E4B33F826
:102420001230B0FBF3F0636800EB5300B0FBF3F045
:10243000A0F110024FF6EF739A4229D8236880B2B8
:10244000D86000200123A4F86A30A4F86830002383
:102450002367636770BDFFF723FADCE7FFF7C8F86F
:10246000D9E74FF40040D8E70120EBE70020E9E787
:102470000120E7E70120E5E70120E3E70120E1E7AC
:102480000020DFE70120DDE70120DBE70020D9E7BE
:102490000120D7E70024F40074500008836A13F089
:1024A000010F06D00268536823F40033C16A0B435E
:1024B0005360836A13F0020F06D00268536823F456
:1024C0008033016B0B435360836A13F0040F06D013
:1024D0000268536823F48023416B0B435360836A83
:1024E00013F0080F06D00268536823F40043816B91
:1024F0000B435360836A13F0100F06D00268936891
:1025000023F48053C16B0B439360836A13F0200F55
:1025100006D00268936823F40053016C0B43936068
:10252000836A13F0400F0AD00268536823F48013C3
:10253000416C0B435360436CB3F5801F0BD0836A2F
:1025400013F0800F06D00268536823F40023C16C97
:102550000B43536070470268536823F4C003816CD7
:102560000B435360EBE72DE9F84305460F4616464B
:102570009946DDF820802C68E46937EA04030CBF33
:102580004FF0010C4FF0000CB44557D1B8F1FF3FAC
:10259000F1D0FEF7A9FBA0EB090040452FD8B8F118
:1025A000000F2CD02B681A6812F0040FE3D0DA6900
:1025B00012F4006FDFD04FF400621A622A6852E80A
:1025C000003F23F4D07342E800310029F6D12A6895
:1025D00002F1080353E8003F23F00103083242E808
:1025E00000310029F3D12023C5F88430C5F88830A4
:1025F000C5F88C30002385F8803003201FE02A685E
:1026000052E8003F23F4D07342E800310029F6D1AC
:102610002A6802F1080353E8003F23F0010308325F
:1026200042E800310029F3D12023C5F88430C5F8F1
:102630008830002385F88030032000E00020BDE8CA
:10264000F8832DE9F04182B01E46D0F88430202B6B
:1026500058D104460D469046002957D0002A57D03D
:1026600090F88030012B55D0012380F88030002372
:10267000C0F88C302123C0F88430FEF735FB0746C4
:10268000A4F85480A4F85680A368B3F5805F05D001
:102690004FF00008002384F8803014E0236913B160
:1026A0004FF00008F6E7A8460025F3E738F8023BAC
:1026B0002268C3F308039362B4F8562092B2013A39
:1026C00092B2A4F85620B4F856309BB273B100967B
:1026D0003B46002280212046FFF745FFE0B9002D50
:1026E000E4D015F8012B23689A62E5E700963B4693
:1026F000002240212046FFF736FF78B92023C4F896
:10270000843000E0022002B0BDE8F0810120FAE749
:102710000120F8E70220F6E70320F4E70320F2E7C0
:1027200030B583B004460023C0F88C30FEF7DCFAE5
:1027300005462268126812F0080F0FD123681B6843
:1027400013F0040F18D12023C4F88430C4F8883063
:102750000020E06684F8800003B030BD6FF07E4357
:102760000093034600224FF400112046FFF7FBFEC2
:102770000028E3D00320EFE76FF07E4300932B4661
:1027800000224FF480012046FFF7EDFE0028DAD04A
:102790000320E1E700283AD010B50446D0F8843091
:1027A0000BB32423C4F884302268136823F0010398
:1027B00013602046FFF7AEFC012813D0A36A13BBB9
:1027C0002268536823F4904353602268936823F08F
:1027D0002A0393602268136843F0010313602046C4
:1027E000FFF79EFF10BD80F88030FFF755FCD4F84E
:1027F000C03023B1D4F8C03020469847D1E7054B0C
:10280000C4F8C030F6E72046FFF748FED8E70120BD
:10281000704700BFD90B0008436E2BB90123A0F805
:102820006A30A0F86830704730B403689A68C2F321
:1028300042629968490F094D6B5CDB00084C615C92
:1028400093FBF1F3A0F86A30AB5CDB00A25C93FB76
:10285000F2F3A0F8683030BC704700BF9450000815
:102860008C50000870477047704790F88030012BFB
:1028700018D0012380F880302423C0F88430036806
:102880001A68196821F00101196022F00052002332
:10289000436601680A602022C0F8842080F88030F6
:1028A000184670470220704738B590F88030012BE9
:1028B0001DD00446012380F880302423C0F88430E2
:1028C00003681D681A6822F001021A6002689368A2
:1028D00023F0604319439160FFF79EFF23681D605A
:1028E0002023C4F88430002084F8800038BD022002
:1028F000FCE738B590F88030012B1DD00446012349
:1029000080F880302423C0F8843003681D681A687A
:1029100022F001021A600268936823F06063194391
:102920009160FFF779FF23681D602023C4F884308D
:10293000002084F8800038BD0220FCE7842801D004
:10294000033070470020704708B500F0C9FC002034
:1029500008BDF0B585B00C46456806680769B0F952
:102960000800FFF7EBFF03AB019300902346BAB2D8
:102970003146284600F082FC012802D1039805B0B8
:10298000F0BD0020FBE708B500B9012000F0F6FD1E
:10299000002008BD00F1080343604FF0FF32826061
:1029A000C360036100230360704700230361704725
:1029B00043684B609A688A60516099600861036857
:1029C00001330360704730B40D68B5F1FF3F11D09B
:1029D00000F108031C465B681A68AA42FAD96368CA
:1029E0004B6099608C60616008610368013303602B
:1029F00030BC70470469F2E70369416882688A6005
:102A0000416851605A68824206D0002202611A6809
:102A1000013A1A601868704782685A60F5E700004A
:102A200082B0002301930D4B1B68B3F1FF3F08D028
:102A30004FF0500383F31188BFF36F8FBFF34F8FB5
:102A4000FEE74FF0500383F31188BFF36F8FBFF39E
:102A50004F8F019B002BFCD002B070470C00002070
:102A600008480068006880F308884FF0000080F391
:102A7000148862B661B6BFF34F8FBFF36F8F00DF6C
:102A800000BF000008ED00E0DFF80C00016841F431
:102A9000700101607047000088ED00E04FF0807326
:102AA00040F8043C21F0010140F8081C054B40F8B7
:102AB0000C3C40F8202C6FF0020340F8243C4438D2
:102AC000704700BF212A000800000000000000003D
:102AD000074B19680868B0E8F04F80F30988BFF326
:102AE0006F8F4FF0000080F311887047AFF30080C4
:102AF000BC1500204FF0500383F31188BFF36F8F94
:102B0000BFF34F8F0B4A136801331360012B00D0C2
:102B100070474FF0E023D3F8043D13F0FF0FF7D0D8
:102B20004FF0500383F31188BFF36F8FBFF34F8FC4
:102B3000FEE700BF0C000020094B1B6843B94FF0B3
:102B4000500383F31188BFF36F8FBFF34F8FFEE7FE
:102B5000013B034A13600BB983F31188704700BF30
:102B60000C00002000000000000000000000000039
:102B7000EFF30980BFF36F8F154B1A681EF0100F2B
:102B800008BF20ED108A20E9F04F10602DE9090000
:102B90004FF0500080F31188BFF34F8FBFF36F8F5A
:102BA00000F012FD4FF0000080F3118809BC196895
:102BB0000868B0E8F04F1EF0100F08BFB0EC108AA4
:102BC00080F30988BFF36F8F704700BFAFF30080B9
:102BD000BC15002008B54FF0500383F31188BFF3F4
:102BE0006F8FBFF34F8F00F0C1FB28B14FF0E02390
:102BF0004FF08052C3F8042D002383F3118808BDE1
:102C00004FF0E022002313619361054B1B680549D7
:102C1000A1FB03139B09013B536107231361704719
:102C200000000020D34D62104FF0E023D3F8002DB8
:102C30003D4B9A421CD04FF0E023D3F8002D3B4B84
:102C40009A421ED030B583B0394B1A78D2B2019275
:102C5000FF221A701B78DBB28DF803309DF8033029
:102C600003F05003334A1370334B07221A601BE002
:102C70004FF0500383F31188BFF36F8FBFF34F8F73
:102C8000FEE74FF0500383F31188BFF36F8FBFF35C
:102C90004F8FFEE7284A1368013B13609DF803300D
:102CA0005B00DBB28DF803309DF8033013F0800F2A
:102CB000F0D1214B1B68032B08D04FF0500383F356
:102CC0001188BFF36F8FBFF34F8FFEE71B021A4AC5
:102CD000136003F4E0631360019BDBB2144A1370CA
:102CE0004FF0E024D4F8203D43F47003C4F8203DB5
:102CF000D4F8203D43F07043C4F8203DFFF780FF37
:102D000000250E4B1D60FFF7BFFED4F8343F43F0A3
:102D10004043C4F8343FFFF7A3FE00F055FCFFF733
:102D20007FFE284603B030BD71C20F4170C20F4113
:102D300000E400E094090020980900200C00002025
:102D4000124A12F0070F1ED0D11D21F00701C1F564
:102D5000406313440A460E48026000214160134458
:102D6000083B23F007030B48036059601960991A68
:102D700051601360084B1960084B1960084B4FF005
:102D800000421A6070474FF44063E4E7A009002056
:102D9000B41500209C090020A8150020A4150020CF
:102DA000A0150020164B1A461B688342FBD35168BE
:102DB00002EB010C844509D0416800EB010C63452E
:102DC00009D00360904219D01060704740680144F8
:102DD00051601046F0E710B40A4C2468A3420BD0AF
:102DE0005B681944416013681B680360904200D01F
:102DF00010605DF8044B70470460F7E7704700BF50
:102E0000B41500209C09002070B5054600F0A6FA14
:102E1000364B1B68A3B1364B1B681D424ED135B1F2
:102E2000083515F0070F02D025F007050835002DED
:102E300046D0304B1B68AB4251D32F4A146804E094
:102E4000FFF77EFFE7E722461C466368AB4202D2EB
:102E50002368002BF7D1254B1B68A34241D016688D
:102E600008362368136063685B1B102B10D9601948
:102E700010F0070F08D04FF0500383F31188BFF311
:102E80006F8FBFF34F8FFEE743606560FFF78AFFE8
:102E9000626818490B689B1A0B60184909688B42D5
:102EA00001D216490B60124B1B6813436360002369
:102EB0002360134A13680133136002E0002600E028
:102EC000002600F0DFFA16F0070F0CD04FF0500389
:102ED00083F31188BFF36F8FBFF34F8FFEE7002698
:102EE000EFE70026EDE7304670BD00BF9C090020EB
:102EF000A0150020A4150020B4150020A81500205E
:102F0000AC150020002834D038B50446A0F10805DF
:102F100050F8043C174A1268134208D14FF050038E
:102F200083F31188BFF36F8FBFF34F8FFEE750F825
:102F3000081C41B14FF0500383F31188BFF36F8F2A
:102F4000BFF34F8FFEE723EA020340F8043C00F092
:102F500005FA54F8041C084A13680B441360284609
:102F6000FFF720FF054A13680133136000F08AFA67
:102F700038BD7047A0150020A4150020B015002012
:102F8000084B1B681B6823B9074B4FF0FF321A60D0
:102F90007047044B1B68DB68DB685A68024B1A6099
:102FA000704700BFC01500209416002010B50446DD
:102FB000006BFFF7A7FF2046FFF7A4FF10BD2DE928
:102FC000F04707469846089DDDF824900A9C266B3A
:102FD00002F18042013A06EB820626F0070600293C
:102FE0003AD08E464FF0000CBCF10F0F0BD81EF8F4
:102FF0000C2004EB0C0383F834201EF80C3013B1C2
:103000000CF1010CF0E7002384F84330062D00D9C1
:103010000625E56265644FF0000AC4F848A0201D4B
:10302000FFF7C3FC04F11800FFF7BFFC2461C5F1F2
:103030000705A5616462C4F84CA084F850A042461C
:1030400039463046FFF72AFD2060B9F1000F01D064
:10305000C9F80040BDE8F087002384F83430D5E794
:1030600038B5002407E004EB840293000E481844AE
:10307000FFF790FC0134062CF5D90C4D2846FFF7DC
:1030800089FC0B4C2046FFF785FC0A48FFF782FCC1
:103090000948FFF77FFC0948FFF77CFC084B1D60DF
:1030A000084B1C6038BD00BFC81500206816002002
:1030B0007C160020A0160020CC160020B816002098
:1030C000C0150020C415002010B50446FFF712FDFE
:1030D000214A136801331360204B1B685BB1204BFE
:1030E0001B686BB91D4B1B68DA6AE36A9A4207D802
:1030F0001A4B1C6004E0194B1C601368012B28D08C
:10310000184A136801331360E06A01238340164AAA
:1031100011680B43136000EB8000211D134B03EB80
:103120008000FFF745FCFFF707FD0D4B1B687BB1E7
:103130000A4B1B68DA6AE36A9A4209D24FF0E0232D
:103140004FF08052C3F8042DBFF34F8FBFF36F8F42
:1031500010BDFFF785FFD3E754160020BC150020F3
:10316000B41600206016002064160020C815002048
:103170000F4B1B68D3B110B5FFF7BCFC0D4BDB68E0
:10318000DC68201DFFF738FC0B4A1368013B136015
:10319000074A1368013B1360FFF7CEFC2046FFF798
:1031A00005FF034B1B68002BE6D110BD704700BF25
:1031B00058160020CC1600205416002008B5FFF742
:1031C000D7FF074B1B68012BF9D94FF0E0234FF0D5
:1031D0008052C3F8042DBFF34F8FBFF36F8FEEE71C
:1031E000C815002070B504460D461D4B1E681D4BCA
:1031F00018680430FFF700FC50B91A4B1B68DA6AF4
:10320000012303FA02F218490B6823EA02030B6058
:10321000B4F1FF3F0DD03444124B1B685C60A642F2
:1032200010D9124B18680F4B19680431FFF7CBFB0C
:1032300070BD002DEFD00B4B196804310C48FFF71F
:10324000B7FBF5E70B4B1868064B19680431FFF71D
:10325000BAFB094B1B68A342EAD9074B1C60E7E79E
:10326000E0160020BC15002064160020C4150020C4
:10327000B8160020C0150020941600202DE9F04358
:1032800085B00746884614461E469000FFF7BCFDF1
:10329000F0B181465420FFF7B7FD0546A0B1C0F854
:1032A0003090D5B10023039302950D9B01930C9BA5
:1032B00000933346224641463846FFF780FE2846B3
:1032C000FFF702FF012005E04846FFF71BFEE8E795
:1032D0004FF0FF3005B0BDE8F0834FF0FF30F9E765
:1032E00000B583B0174B0193002300938022164949
:1032F0001648FFF7C3FF012805D0B0F1FF3F17D0F4
:1033000003B05DF804FB4FF0500383F31188BFF363
:103310006F8FBFF34F8F0E4B4FF0FF321A600D4B84
:1033200001221A600C4B00221A60FFF77DFCE7E7D0
:103330004FF0500383F31188BFF36F8FBFF34F8FAC
:10334000FEE700BF901600209C500008BD31000829
:1033500094160020B4160020E0160020024A1368DC
:1033600001331360704700BF5C160020F8B53A4B7C
:103370001B68002B69D1394B1D6801351D60C5B92B
:10338000374B1B681B6843B14FF0500383F3118820
:10339000BFF36F8FBFF34F8FFEE7314A1168314B98
:1033A000186810601960304A136801331360FFF722
:1033B000E7FD2E4B1B68AB423DD900272C4B1B6809
:1033C000DB6A03EB83039A002A4B9B58012B00D93D
:1033D0000127294B1B68002B3CD001273AE001272D
:1033E0001F4B1B681B6843B31D4B1B68DB68DC6805
:1033F00063689D4226D3261D3046FFF7FDFAA36A77
:103400001BB104F11800FFF7F7FAE36A01229A40B2
:103410001A49086802430A6003EB83039A003146A5
:1034200014481044FFF7C4FAE26A114B1B68DB6AC8
:103430009A42D4D2D4E70027D2E70C4B4FF0FF32A8
:103440001A60BBE7094A1360B8E70D4A13680133F5
:10345000136000273846F8BD5C160020E0160020F7
:10346000C0150020C41500209816002094160020D6
:10347000BC150020C8150020E416002064160020AA
:103480009C16002038B5354B1B6843B94FF05003EC
:1034900083F31188BFF36F8FBFF34F8FFEE7FFF702
:1034A00029FB2E4B1A68013A1A601B68002B4FD17A
:1034B0002B4B1B680BB900244BE00024294B1B68E5
:1034C0001BB3284BDB68DC6804F11800FFF794FAA3
:1034D000251D2846FFF790FAE06A01238340224A1F
:1034E00011680B43136000EB800029461F4B03EB70
:1034F0008000FFF75DFAE26A1D4B1B68DB6A9A42A7
:10350000DCD31C4B01221A60D8E70CB1FFF738FD61
:10351000194B1C6884B9174B1C68D4B14FF0E023D9
:103520004FF08052C3F8042DBFF34F8FBFF36F8F5E
:1035300001240EE0013C07D0FFF718FF0028F9D066
:103540000C4B01221A60F5E70B4B00221A60E2E7F0
:103550000024FFF7F1FA204638BD00BF5C160020BA
:1035600054160020A016002064160020C815002064
:10357000BC150020E41600209C16002010B5A8B150
:103580000446104B1B6843B14FF0500383F311887E
:10359000BFF36F8FBFF34F8FFEE7FFF7DFFE002112
:1035A0002046FFF71FFEFFF76DFF48B94FF0E023FD
:1035B0004FF08052C3F8042DBFF34F8FBFF36F8FCE
:1035C00010BD00BF5C160020204B1B681BB1204BB8
:1035D00001221A6070471E4B00221A601D4B1B68A7
:1035E000B3FA83F3DBB2C3F11F0303EB83018A0059
:1035F00019498A5842B94FF0500383F31188BFF339
:103600006F8FBFF34F8FFEE7134903EB83008200F8
:103610000A4450684068506003EB830C4FEA8C0208
:1036200008321144884209D003EB83039A000A4B05
:1036300013445B68DA68094B1A6070474068624659
:103640009100054A0A445060EEE700BF5C16002076
:10365000E416002064160020C8150020BC150020C8
:10366000014B1868704700BF1000002070B50D4E68
:103670000D4D761BB61006D0002455F8043B0134DE
:103680009847A642F9D1094E094D761B01F0B6FCC8
:10369000B61006D0002455F8043B01349847A642E2
:1036A000F9D170BDB4500008B4500008BC500008F7
:1036B000B4500008830730B548D0541E002A3FD0CC
:1036C000CAB2034601E0013C3AD303F8012B9D073F
:1036D000F9D1032C2DD9CDB245EA05250F2C45EAA9
:1036E000054536D9A4F1100222F00F0C03F1200E8B
:1036F000E6444FEA121C03F1100242E9045542E984
:10370000025510327245F8D10CF1010214F00C0F81
:1037100003EB021204F00F0C13D0ACF1040323F0FE
:1037200003030433134442F8045B9342FBD10CF0CF
:1037300003042CB1CAB21C4403F8012B9C42FBD1F8
:1037400030BD64461346002CF4D1F9E70346144615
:10375000BFE71A46A446E0E770B5054688B00846BC
:103760000C46FCF78DFF224EAA6B059001214318F1
:10377000CDE9066104A8022104940393AC6801908A
:10378000029122B3636E13F0010FB4F90C309AB2B8
:1037900001D1980525D5910406D4626E43F40053F7
:1037A00022F40052A3816266284601AA214600F055
:1037B000E7F8636E002814BF4FF0FF350A25DA07DB
:1037C00002D4A3899B0506D5284608B070BD2846BB
:1037D00000F02EF8D6E7A06D00F074FA284608B085
:1037E00070BDA06D00F06CFAB4F90C309AB2D2E75B
:1037F000A8500008024B01461868FFF7ADBF00BF94
:1038000010000020024B13B1024800F005B87047C9
:103810000000000055390008002301461A461846EA
:1038200001F04EB8014900F023BA00BF7149000809
:103830002DE9F0478246394800F042FADAF838407C
:10384000002C66D1DAF80450354ACAF83C2003232C
:10385000CAE9B843DFF8DC90DFF8DC80314F324E44
:1038600004230AF53B72CAF8E8222146C5E902435F
:10387000C5E90044C5E904446C660822AC6105F161
:103880005C00FFF717FFC5E90759C5E90987EE6234
:1038900005F1580000F010FADAF80850234BEB60FD
:1038A0002146C5E90044C5E904446C66AC60AC61DE
:1038B000082205F15C00FFF7FDFEC5E90759C5E9DF
:1038C0000987EE6205F1580000F0F6F9DAF80C50BD
:1038D000174BEB602146C5E90044C5E904446C661A
:1038E000AC60AC61082205F15C00FFF7E3FE05F176
:1038F0005800C5E90759C5E90A76C5F8248000F0E3
:10390000DBF90123CAF838300448BDE8F04700F07D
:10391000D9B9BDE8F047014800F0D4B9F416002049
:103920002538000899470008B94700080900010038
:10393000120002003547000859470008014800F00E
:10394000BFB900BFF0160020014800F0BBB900BFAE
:10395000F016002038B5084B084D5B1B9C1007D0B3
:10396000043B1D44013C55F804399847002CF9D11B
:10397000BDE8384001F048BBC0500008BC5000080A
:103980009368002B00F085802DE9F04FB1F90C30E1
:103990000C461907804683B0174698B225D523698F
:1039A0001BB310F002033D682DD04FF0000ADFF882
:1039B000BCB25646B9465E453346524628BF5B46C2
:1039C0004046002E52D0E169676AB847002856DDAC
:1039D000D9F808301B1A8244361AC9F80830002B6F
:1039E000E9D1002003B0BDE8F08F2146404600F049
:1039F000FDFE002840F03681B4F90C303D6898B2E5
:103A000010F00203D1D110F0010944D14E460097C5
:103A100046B38205D4F808B040F18380B3455A46D6
:103A200000F2B28010F4906F40F0BF8020680192E5
:103A3000494600F0F9FBA368019AA3EB0B01236848
:103A4000A1601344B24623600026009B9868A0EB57
:103A50000A00D14498600028C3D0B4F90C0080B2A9
:103A6000002ED6D1D5E900960835D1E7D5E900A6D4
:103A70000835A0E72146404601F078F880B3B4F954
:103A80000C3043F040034FF0FF30A38103B0BDE89A
:103A9000F08F002070471E46AA46994618461D46DC
:103AA000009756B388B34A46D4E904132068B2425B
:103AB00028BF3246884205D9A16803EB010B5A455D
:103AC00000F3A680934263DCE169676A2A464046B8
:103AD000B847B0F1000BD2DDB9EB0B09CAD0012019
:103AE000009A9368A3EB0B035D44A6EB0B0693606F
:103AF000002B3FF476AF002ED4D10AF1080353E92E
:103B000002569A460833002EF9D032460A2128463A
:103B1000FCF726FE002800F09C800130A0EB050990
:103B2000C1E720682369984216D86369B34213D865
:103B30006FF00042B24228BF3246E16992FBF3F2D5
:103B4000676A02FB03F340464A46B847B0F1000AF1
:103B500095DDA6EB0A0678E7B345DA4628BFB246FC
:103B60005246494600F060FBA3682268A3EB0A03B3
:103B70005244A3602260002BEBD12146404600F066
:103B8000F5FF0028E5D07AE72068B34632464EE7D5
:103B90002946019200F048FB019AA3689B1AA36092
:103BA000236813442360934696E723682169A3EBB7
:103BB000010B636903EB430A0AEBDA7A0BF10103A9
:103BC0004FEA6A0A33445345524684BF9A465246E6
:103BD00043052CD51146404600F076F800283BD02E
:103BE0005A4621690190FCF7ADFCA289019B22F4A1
:103BF000906242F08002A28103EB0B002361AAEBEA
:103C00000B03C4F814A0A3602060B34632460EE74D
:103C100029465A4600F008FB23685B44236021468E
:103C2000404600F0A3FF00283FF456AF27E7404688
:103C300000F082FB03460028DED12169404601F0F6
:103C400013F8B4F90C300C2223F08003C8F80020DC
:103C500017E7721C914627E70C22B4F90C30C8F81C
:103C600000200EE74FF0FF30BCE600BF00FCFF7FF6
:103C70002DE9F8430746884600F538764FF00009ED
:103C8000D6E90154013D11D4A389012B05F1FF357B
:103C900008D9B4F90E300133214603D03846C04765
:103CA00049EA00096B1C04F16804EDD13668002E66
:103CB000E6D14846BDE8F883704700BF704700BFB3
:103CC000704700BF704700BF2DE9F04F01F10B06B0
:103CD000162E83B0044624D8102900F2BA8000F0D2
:103CE0001FFB102618220220B54F3A44A2F108010A
:103CF00053688B4200F0BA805A68D96822F00302F8
:103D00001A449D68E9608D60516841F001012046C8
:103D1000516003F1080500F009FB284603B0BDE837
:103D2000F08F36F0070600F19480B14200F29180E6
:103D300000F0F6FAB6F5FC7FC0F09A81730A00F045
:103D40008F80042B00F26F81B30903F1390003F176
:103D5000380CC3009A4F3B44A3F108055B689D42B1
:103D600006D10CE0002980F22781DB689D4206D055
:103D70005A6822F00302911B0F29F3DD60463D696A
:103D8000DFF850C265457CD06A6822F00302931BBD
:103D90000F2B00F37B81002BC7E904CC80F26C81F0
:103DA000B2F5007F80F01A81D308796801334FEAB9
:103DB000521E012202FA0EF20A4357F833E0C5F808
:103DC00008E007EBC3010839E9607A6047F833502F
:103DD000CEF80C50831001219940914257D81142DE
:103DE00006D120F003004900114200F10400FAD08E
:103DF00007EBC0094D468646D5F80C80454508D1ED
:103E00001DE1002B80F22481D8F80C80454500F09C
:103E10001681D8F8042022F00302931B0F2BF0DD4B
:103E20002046D8E9025408EB060146F00106C8F81E
:103E30000460EC60A56043F00104C7E90411C1E926
:103E400002CC4C6048F8023000F070FA08F1080526
:103E500002E00C2323600025284603B0BDE8F08F64
:103E60004FF4007340204FF03F0C73E7D3689A4241
:103E700008BF02307FF440AF3D69DFF858C16545A7
:103E800082D17A688310012199409142A7D9BD68F7
:103E90006B6823F003094E4503D8A9EB06030F2BEB
:103EA0007ADCDFF834B1474BDBF800201B680132C5
:103EB000334405EB090A00F0338103F580530F33D7
:103EC00023F47F6828F00F084146204600F020FCCC
:103ED000411C024600F0F380824500F2EE803A4B2E
:103EE000196841441960084600F04E81DBF8001063
:103EF000019301311BBFA2EB0A0A5044CBF800200A
:103F0000186012F0070B00F01781CBF108010A448A
:103F1000CBF5805190440831A1EB0801C1F30B0AA5
:103F200051462046009200F0F3FB421CDDE90023DD
:103F300000F04F81801A00EB0A081968BA6048F057
:103F400001005144BD425060196000F02981B9F16F
:103F50000F0F40F227816868A9F10C0C2CF0070CB8
:103F600000F0010040EA0C0068604FF0050E05EB20
:103F70000C00BCF10F0FC0E901EE00F23281506875
:103F80001546124B1A688A4238BF1960104B1A68DE
:103F90008A4238BF196094E0AA1943F0010346F041
:103FA00001066E602046BA60536000F0BFF9083524
:103FB000284603B0BDE8F08FD9681A44A1E600BFD7
:103FC0004404002028170020F816002020170020A5
:103FD000241700204C0400204C080020B2F5206F6C
:103FE0004FEA522363D3142B00F2B78003F15C0134
:103FF000C9005B3307EB010E7958AEF1080E8E4510
:1040000000F091804B6823F00303934202D9896842
:104010008E45F7D1D1F80CE07A68C5E9021ECEF8DA
:104020000850CD60D6E6142B59D9542B00F29D8050
:10403000330B03F16F0003F16E0CC3008AE60EF13F
:10404000010E1EF0030F05F108057FF4D5AE51E017
:10405000424445465368D8F80C1043F001035360BE
:1040600055F8083F2046D9608B6000F05FF9F3E611
:10407000F00806F1080237E62A442046536843F068
:1040800001035360083500F051F9E5E6A91920460F
:1040900046F0010643F001046E60C7E90411C1E96E
:1040A00002CC4C60AB5000F041F90835D4E69309DE
:1040B00003F13901C90038339CE7BD425FD0BD68C8
:1040C000686820F003084645A8EB060302D80F2BCA
:1040D0003FF762AF204600F029F90025BCE603F166
:1040E0005C0003F15B0CC30034E659F808394B451A
:1040F00040F0968010F0030F00F1FF30F5D17B689F
:1041000023EA01037B60490099423FF6C0AE19B92A
:10411000BDE649000EF1040E1942FAD0704667E67A
:1041200003F11008D0E69A104FF001087B6808FAF6
:1041300002F21A437A6070E702EB08014942C1F3C8
:104140000B0A51462046009200F0E2FA431CDDE9DA
:1041500000237FF4EFAEDA46EFE6542B25D8130B9D
:1041600003F16F01C9006E3344E7B3F5AA7F25D888
:10417000F30B03F1780003F1770CC300EAE5294B58
:10418000186840441860B1E6CAF30B0CBCF1000F8C
:104190007FF4ACAEBD68C84448F001006860F0E64A
:1041A0001546EEE60123536094E7B3F5AA7F23D8C2
:1041B000D30B03F17801C90077331BE740F2545267
:1041C000934223D8B30C03F17D0003F17C0CC300B0
:1041D000C0E5ABF1080BD844A8EB02084FF0000A89
:1041E000ABE605F108012046009300F03DFDBD68F7
:1041F000009B68681968C4E640F254518B420BD8A2
:10420000930C03F17D01C9007C33F3E64FF47E7318
:104210007F204FF07E0C9DE54FF47E717E23E9E612
:104220007B6870E7F816002088420DD98B1883420E
:104230000AD900EB020CBAB1624613F801CD02F8BC
:1042400001CD9942F9D170470F2A0ED8034602F1E9
:10425000FF3C4AB10CF1010C013B8C4411F8012BDD
:1042600003F8012F6145F9D1704740EA01039B072C
:1042700050D1A2F1100370B501F1200C23F00F050D
:1042800001F1100E00F11004AC441B095EF8105C43
:1042900044F8105C5EF80C5C44F80C5C5EF8085C5A
:1042A00044F8085C5EF8045C44F8045C0EF1100EFF
:1042B000E64504F11004E9D1013312F00C0F01EBD3
:1042C000031102F00F0400EB031327D0043C24F089
:1042D00003064FEA940C1E441C1F8E465EF8045BD6
:1042E00044F8045FB442F9D10CF1010402F0030276
:1042F00003EB840301EB840102F1FF3C4AB10CF1B2
:10430000010C013B8C4411F8012B03F8012F61458E
:10431000F9D170BD02F1FF3C03469BE72246EBE773
:104320000148FFF7CDBC00BFEC1600200148FFF7A5
:10433000C9BC00BFEC1600202DE9F84F1746002934
:1043400000F0988007F10B0580460C46FFF7E8FF68
:10435000162D5DD810252A46AF425ED854F8041CAD
:1043600021F003069642A4F1080962DABC4BD3F8A7
:1043700008C009EB0600844500F09780D0F804C01F
:104380002CF0010303445B68DB0768D42CF0030CBA
:1043900006EB0C03934247DACB0710D454F8083CE1
:1043A000A9EB030ADAF8043023F003018C44B44487
:1043B000944580F211817318934280F2E880394667
:1043C0004046FFF781FC0746E0B154F8043C23F077
:1043D00001034B44A0F10802934200F0D280321F47
:1043E000242A00F2F580132A00F2AC80034622460C
:1043F000116819605168596092689A602146404678
:1044000000F032FC4046FFF791FF3846BDE8F88FD8
:1044100025F00705002D2A469EDA0C23C8F8003047
:1044200000273846BDE8F88F1E46D0E90223D36046
:104430009A60731B0F2B22D8D9F8043003F00103C4
:1044400033434E44C9F80430736843F0010373608A
:1044500040462746FFF76AFF3846BDE8F88FC90790
:10446000ADD454F8083CA9EB030ADAF8041021F0A3
:104470000301A0E7BDE8F84F1146FFF725BCD9F8C6
:10448000041001F001012943C9F8041009EB0501EA
:104490004E4443F001034B60736843F0010308315D
:1044A0007360404600F0E0FBD2E7DCF8040020F047
:1044B000030B06EB0B0C05F1100084454DDAC90720
:1044C0003FF57DAF54F8081CA9EB010ADAF8041097
:1044D00021F003018B44B34458453FF76CAF574676
:1044E000DAF80C1057F8080F321F242AC1608860D0
:1044F00000F2DB80132A40F2D6802168CAF8081047
:104500006168CAF80C101B2A00F2DF8008340AF137
:1045100010022168116061685160A16891600AEB26
:104520000501ABEB050242F0010299604A60DAF83E
:10453000043003F001031D434046CAF80450FFF75E
:10454000F5FE6EE723680360636843601B2A68D842
:1045500004F1080200F108034AE709EB05029A603A
:10456000ACEB050343F00103536054F8043C03F043
:1045700001031D43404644F8045CFFF7D7FE27467D
:104580004FE750F8043C23F003031E4451E757461D
:10459000DAF80C1057F8080F321F242AC16088601F
:1045A0004CD8132A48D92168CAF808106168CAF89B
:1045B0000C101B2A56D808340AF110021E46236834
:1045C000136063685360A3689360D1463C4630E74C
:1045D0002146FFF729FE11E7D0E902135746CB60C9
:1045E000996057F8081FDAF80C30CB60321F242A84
:1045F00099602DD8132A29D92368CAF8083063682E
:10460000CAF80C301B2A42D808340AF11003226879
:104610001A6062685A60A2689A606646D1463C4653
:1046200007E7A3688360E368C360242A26D004F107
:10463000100200F11003DBE63A46BFE72146384698
:104640001E46D146FFF7F0FD3C46F2E63B46DEE76C
:10465000214638466646D146FFF7E6FD3C46E8E689
:1046600044040020A168CAF81010E168CAF81410C8
:10467000242A20D010340AF118029FE7236903612D
:104680006169416104F1180200F11803B0E6A36802
:10469000CAF81030E368CAF81430242A21D0103444
:1046A0000AF11803B3E73A4633E721463846FFF7E5
:1046B000BBFD164B33E72269CAF818206269CAF8B5
:1046C0001C2018340AF1200278E7A168CAF81010FB
:1046D000E168CAF81410242A0DD010340AF1180227
:1046E00017E72369CAF818306369CAF81C30183410
:1046F0000AF120038BE72269CAF818206269CAF818
:104700001C2018340AF1200203E700BF44040020F3
:1047100038B5074D0022044608462A60FCF7FAF92E
:10472000431C00D038BD2B68002BFBD0236038BD64
:104730002C17002010B50C46B1F90E1000F020FC2B
:10474000002803DB236D0344236510BDA38923F4F4
:104750008053A38110BD00BF2DE9F0410C46B1F993
:104760000C101F46CB05054616460BD421F480518C
:10477000A1813B46B4F90E1032462846BDE8F0410F
:1047800000F01EB8B4F90E100223002200F072FBF4
:10479000B4F90C10EAE700BF10B50C46B1F90E10E1
:1047A00000F068FBA389421C0EBF23F4805343F43E
:1047B00080532065A38110BDB1F90E1000F0C6B87A
:1047C00038B50C46084D8446114620461A4600234B
:1047D0002B606446FCF784F9431C00D038BD2B687D
:1047E000002BFBD0236038BD2C17002038B5334B8D
:1047F0001B6805460C460BB19A6B12B3B4F90C302A
:1048000018079AB225D5216900292DD012F0010090
:1048100007D00020A06060694042A06139B100204B
:1048200038BD950758BF6069A0600029F7D112060E
:1048300058BF0846F4D543F04003A3814FF0FF3042
:1048400038BD1846FEF7F4FFB4F90C3018079AB2D9
:10485000D9D4D1062AD5520714D4216943F00803CC
:10486000A3819AB20029D1D102F42070B0F5007F63
:10487000CCD02146284600F013FBB4F90C30216956
:104880009AB2C3E7216B51B104F14002914204D0C6
:10489000284600F0E9F9B4F90C30002222632169BE
:1048A0000022C4E9001223F02403D7E7092243F0D1
:1048B00040032A604FF0FF30A38138BD1000002074
:1048C0002DE9F047DFF880A00646DAF800009846A8
:1048D0000F469146FFF7F4F91A4B1B68D3F848418D
:1048E00024B365681F2D26DC5EB96B1C0235DAF82F
:1048F0000000636044F82570FFF7E4F90020BDE88C
:10490000F08704EB85010123C1F88890D4F8882151
:10491000AB401A43022EC4F88821C1F80881E4D1C3
:10492000D4F88C211343C4F88C31DEE703F5A67468
:10493000C3F84841D5E7DAF80000FFF7C3F94FF0B4
:10494000FF30DCE7A45000084004002038B5074DD4
:104950000022044608462A60FCF7D0F8431C00D029
:1049600038BD2B68002BFBD0236038BD2C170020EE
:1049700070B500294BD006460C4610B1836B002B56
:1049800048D0636ED80734D5B4F90C30002B3ED034
:104990002146304600F052F8E36A054633B1E1693A
:1049A000304698470028B8BF4FF0FF35A3891A0654
:1049B0003BD4216B41B104F14003994202D030460F
:1049C00000F052F900232363616C21B1304600F0FE
:1049D0004BF900236364FEF7B1FF636E0022DB072F
:1049E000A28127D5A06DFFF769F9FEF7ADFF284634
:1049F00070BDA3899905CBD4A06DFFF761F9B4F917
:104A00000C30002BC4D1656E15F0010508D00025CF
:104A1000284670BDFEF70CFF636ED807B4D4E8E7F4
:104A2000A06DFFF74FF9284670BD2169304600F0B0
:104A30001BF9BEE7A06DFFF745F9D3E7B1F90C20EC
:104A40002DE9F0410C461107804647D4636842F4D3
:104A50000062002BA2815EDDA56A002D58D00023E4
:104A6000D8F80060C8F8003093B212F4805256D1E2
:104A70000123E1694046A847431C67D0A389A56A82
:104A80005F0705D56368C01A236B0BB1E36BC01ACF
:104A9000E169024600234046A847411C41D1D8F8AD
:104AA0000030002B3DD01D2B01D0162B56D1A389F1
:104AB0002269226023F4006300216160A381216BDD
:104AC000C8F8006021B304F14003994202D0404687
:104AD00000F0CAF800202063BDE8F0812669BEB16D
:104AE00093B2256826609A070CBF63690023AD1B4B
:104AF000A3600BE02B463246E169676A4046B8473F
:104B0000B0F1000CA5EB0C05664417DD002DF1DCBF
:104B10000020BDE8F081E36B002B9DDCF8E7206D01
:104B2000AEE7B4F90C302269226023F40063A3815C
:104B30000022DB046260C2D52065C0E7A38943F090
:104B400040034FF0FF30A381BDE8F081D8F800307A
:104B5000002B93D01D2B06D0162B04D0A38943F035
:104B60004003A381D5E7C8F80060D1E738B50C460B
:104B7000054608B1836BA3B1B4F90C00B8B1636EFC
:104B8000DB0701D4810515D528462146FFF756FFDE
:104B9000636EDA07054602D4A3899B050ED5284625
:104BA00038BDFEF745FEB4F90C000028E7D10546F4
:104BB000284638BDA06DFFF783F8E5E7A06DFFF745
:104BC00081F8284638BD00BFF8B5244F0C4606468C
:104BD000FFF7A6FBBA685568C4F57E630F3325F06E
:104BE00003052B4423F47F6323F00F03A3F58054C4
:104BF000B4F5805F07DB00213046FFF789FDBB6815
:104C00002B44984204D03046FFF790FB0020F8BDBB
:104C100061423046FFF77CFD01300DD0104ABB6881
:104C20002D1B45F001055D60136830461B1B1360AA
:104C3000FFF77CFB0120F8BD00213046FFF768FD3F
:104C4000BA68831A0F2BDEDD43F001035360054B76
:104C500003491B68C01A0860D5E700BF4404002060
:104C6000F81600204C080020002961D0F8B50C4649
:104C70000646FFF755FB54F8042C7B4FA4F10805BA
:104C800022F0010105EB010CB868DCF80430604546
:104C900023F0030300F08B80D207CCF8043032D429
:104CA00054F8082CAD1A1144AA6807F10800824292
:104CB0006AD00CEB0304D4F804E0EC68D4601EF076
:104CC000010FA26000F0978041F001036B60CCF807
:104CD0000010B1F5007F35D27A68CB084809012170
:104CE000013381401143796007EBC30257F8331059
:104CF000083AC5E9021247F83350CD603046BDE8A6
:104D0000F840FFF713BB0CEB03025268D00710D436
:104D1000194407F10800DCF80830834273D0DCF84E
:104D20000C20DA60936041F001036B606950D0E7BA
:104D3000704741F00103B1F5007F44F8043CCCF822
:104D40000010C9D3B1F5206F4FEA512348D28B0927
:104D500003F1390003F13802C300F818FB58083892
:104D6000984259D05A6822F003028A4202D99B68BD
:104D70009842F7D1D868C5E902308560DD603046D9
:104D8000BDE8F840FFF7D2BA0CEB03025268D20735
:104D900063D40B44DCE90212CA60916043F0010263
:104DA0006A603046EB50BDE8F840FFF7BFBA0B44ED
:104DB000D10707D454F8082CAD1A1344D5E90212D0
:104DC000CA60916043F001026A60284ABD601268BF
:104DD0009A4293D8264B30461968FFF7F5FE8DE7C7
:104DE000142B0AD9542B1FD80B0B03F16F0003F1BE
:104DF0006E02C300B1E719448DE703F15C0003F1D3
:104E00005B02C300A9E741F00103C7E90455C5E906
:104E100002006B60695071E779689210012404FA0E
:104E200002F20A437A60A6E7B3F5AA7F06D8CB0B55
:104E300003F1780003F17702C3008EE740F2545289
:104E4000934206D88B0C03F17D0003F17C02C30072
:104E500083E74FF47E737E227FE741F001036B60AE
:104E6000CCF800104AE700BF44040020500800209E
:104E70002817002038B50C46084D844611462046B8
:104E80001A4600232B606446FBF742FE431C00D009
:104E900038BD2B68002BFBD0236038BD2C170020B9
:104EA0002DE9F0418B890C46990796B008D504F19D
:104EB00043030122C4E90432236016B0BDE8F08147
:104EC000B4F90E100029064627DB6A4600F06EF89A
:104ED000002821DB019D05F47045A5F50055B5FAC4
:104EE00085F54FF480686D094FF400674146304600
:104EF000FEF7EAFEB4F90C30F0B1204AF26343F059
:104F00008003C4F81480A3812060206135BB3B433B
:104F1000A38116B0BDE8F081A38913F0800519D0F4
:104F20004FF0400841463046FEF7CEFE0025B4F96A
:104F30000C302F460028E0D19A05BED423F003039D
:104F400004F1430243F002030121C4E90421A381D7
:104F50002260B2E74FF480682F46C7E7B4F90E101D
:104F6000304600F039F810B9B4F90C30CFE7A38916
:104F700023F0030343F001031BB2C8E72538000800
:104F800038B50C46084D8446114620461A46002383
:104F90002B606446FBF794FD431C00D038BD2B68A2
:104FA000002BFBD0236038BD2C17002070B50C46B9
:104FB000084D03460026204611461C462E60FBF78E
:104FC000A0FD431C00D070BD2B68002BFBD02360DC
:104FD00070BD00BF2C17002038B5074D00220446D5
:104FE00008462A60FBF792FD431C00D038BD2B68B1
:104FF000002BFBD0236038BD2C170020F8B500BF74
:10500000F8BC08BC9E467047F8B500BFF8BC08BCA9
:045010009E46704701
:105014003C500008010800080000000000000000E7
:10502400800000004850000819080008FDFF000037
:10503400000000008000000064656661756C7454B3
:1050440061736B006D795461736B30320000000042
:1050540048656C6C6F200D0000000000000000002B
:10506400010203040607080900000000010203040A
:10507400010002000400060008000A000C001000F1
:10508400200040008000000108040204080101011E
:10509400010101030701000049444C4500000000E0
:0850A400180000200A000000C2
:0850AC00C4B1FF7F0100000008
:0850B400053800082502000880
:0450BC0001020008E5
:1050C0000024F4000100000010000000AAAAAAAA0F
:1050D0001800002000000000000000000403002071
:1050E0006C030020D403002000000000000000003A
:1050F00000000000000000000000000000000000B0
:10510000000000000000000000000000000000009F
:10511000000000000000000000000000000000008F
:10512000000000000000000000000000000000007F
:10513000000000000000000000000000000000006F
:10514000000000000000000000000000000000005F
:10515000000000000000000000000000000000004F
:10516000000000000000000000000000000000003F
:10517000000000000000000000000000000000002F
:1051800001000000000000000E33CDAB34126DE6CC
:10519000ECDE05000B000000000000000000000035
:1051A00000000000000000000000000000000000FF
:1051B00000000000000000000000000000000000EF
:1051C00000000000000000000000000000000000DF
:1051D00000000000000000000000000000000000CF
:10550000E816002000000000000000004404002015
:10551000440400204C0400204C04002054040020CB
:10552000540400205C0400205C040020640400207B
:10553000640400206C0400206C040020740400202B
:10554000740400207C0400207C04002084040020DB
:10555000840400208C0400208C040020940400208B
:10556000940400209C0400209C040020A40400203B
:10557000A4040020AC040020AC040020B4040020EB
:10558000B4040020BC040020BC040020C40400209B
:10559000C4040020CC040020CC040020D40400204B
:1055A000D4040020DC040020DC040020E4040020FB
:1055B000E4040020EC040020EC040020F4040020AB
:1055C000F4040020FC040020FC040020040500205A
:1055D000040500200C0500200C0500201405002007
:1055E000140500201C0500201C05002024050020B7
:1055F000240500202C0500202C0500203405002067
:10560000340500203C0500203C0500204405002016
:10561000440500204C0500204C05002054050020C6
:10562000540500205C0500205C0500206405002076
:10563000640500206C0500206C0500207405002026
:10564000740500207C0500207C05002084050020D6
:10565000840500208C0500208C0500209405002086
:10566000940500209C0500209C050020A405002036
:10567000A4050020AC050020AC050020B4050020E6
:10568000B4050020BC050020BC050020C405002096
:10569000C4050020CC050020CC050020D405002046
:1056A000D4050020DC050020DC050020E4050020F6
:1056B000E4050020EC050020EC050020F4050020A6
:1056C000F4050020FC050020FC0500200406002055
:1056D000040600200C0600200C0600201406002002
:1056E000140600201C0600201C06002024060020B2
:1056F000240600202C0600202C0600203406002062
:10570000340600203C0600203C0600204406002011
:10571000440600204C0600204C06002054060020C1
:10572000540600205C0600205C0600206406002071
:10573000640600206C0600206C0600207406002021
:10574000740600207C0600207C06002084060020D1
:10575000840600208C0600208C0600209406002081
:10576000940600209C0600209C060020A406002031
:10577000A4060020AC060020AC060020B4060020E1
:10578000B4060020BC060020BC060020C406002091
:10579000C4060020CC060020CC060020D406002041
:1057A000D4060020DC060020DC060020E4060020F1
:1057B000E4060020EC060020EC060020F4060020A1
:1057C000F4060020FC060020FC0600200407002050
:1057D000040700200C0700200C07002014070020FD
:1057E000140700201C0700201C07002024070020AD
:1057F000240700202C0700202C070020340700205D
:10580000340700203C0700203C070020440700200C
:10581000440700204C0700204C07002054070020BC
:10582000540700205C0700205C070020640700206C
:10583000640700206C0700206C070020740700201C
:10584000740700207C0700207C07002084070020CC
:10585000840700208C0700208C070020940700207C
:10586000940700209C0700209C070020A40700202C
:10587000A4070020AC070020AC070020B4070020DC
:10588000B4070020BC070020BC070020C40700208C
:10589000C4070020CC070020CC070020D40700203C
:1058A000D4070020DC070020DC070020E4070020EC
:1058B000E4070020EC070020EC070020F40700209C
:1058C000F4070020FC070020FC070020040800204B
:1058D000040800200C0800200C08002014080020F8
:1058E000140800201C0800201C08002024080020A8
:1058F000240800202C0800202C0800203408002058
:10590000340800203C0800203C080020FFFFFFFF77
:045910000000020091
:0400000508000C6182
:00000001FF
